S0030000FC
S35100000000FFFB0020C1A101003980010039800100398001003980010039800100000000000000000000000000000000008104000039800100000000002B0500003980010039800100398001003980010038
S3510000004C3980010039800100398001003980010039800100398001003980010039800100398001003980010039800100398001003980010039800100398001003980010039800100398001003980010094
S351000000983980010039800100398001003980010039800100398001003980010039800100398001003980010039800100398001003980010039800100398001003980010039800100398001003980010048
S351000000E439800100398001003980010039800100398001003980010039800100398001003980010039800100398001003980010039800100398001003980010039800100398001003980010039800100FC
S3510000013039800100398001003980010039800100398001003980010039800100398001003980010039800100398001003980010039800100398001003980010039800100398001003980010039800100AF
S3510000017C3980010039800100398001003980010039800100398001003980010039800100398001003980010039800100398001003980010039800100398001003980010039800100398001003980010063
S351000001C83980010039800100398001003980010039800100398001003980010039800100398001003980010039800100398001003980010039800100398001003980010039800100398001003980010017
S3510000021439800100398001003980010039800100398001003980010039800100398001003980010039800100398001003980010039800100398001003980010039800100398001003980010039800100CA
S35100000260398001003980010039800100398001003980010039800100398001003980010039800100398001003980010039800100398001003980010039800100398001003980010039800100398001007E
S351000002AC3980010039800100398001003980010039800100398001003980010039800100398001003980010039800100398001003980010039800100398001003980010039800100398001003980010032
S351000002F839800100398001003980010039800100398001003980010039800100398001003980010039800100398001003980010039800100398001003980010039800100398001003980010039800100E6
S351000003443980010039800100398001003980010039800100398001003980010039800100398001003980010039800100398001003980010039800100398001003980010039800100398001003980010099
S35100000390398001003980010039800100398001003980010039800100398001003980010039800100398001003980010039800100398001003980010039800100398001003980010039800100398001004D
S329000003DC3980010039800100398001003980010039800100398001003980010039800100398001006D
S31500000400FFFFFFFFFFFFFFFFFFFFFFFFFEFFFFFFF7
S325000004200100000031C9AE5100000000000000000000000000000000446B020018B500003E
S3510000044001DF704701DFFFF7FEBFDFF8E802D0F8000072B6B0F8181051B9D0F82410D0F81C20D2F81C30994200F0028062B603DF62B6704703DF7047FFF7FEBF02DF704772B61EF0040F0CBFEFF3088126
S3510000048CEFF30981D1F8181011F8021C032940F008804DF804ED00F02CF85DF804EB00F026B8012940F00680DFF87C02D0F8000000F048B8022940F01A80DFF86C02D0F80000D0F81C10D1F8082042F054
S351000004D80102C1F808204DF804EDD1F80420D1F80030C2F80030C3F8042000F004F85DF804EB62B670472DE90740DFF83402D0F8041011F0805F40F00A80EFF31182A2F1100280F82220DFF81C12C0F899
S351000005240410BDE8078072B6EFF3098CDFF80C1291F80220EFF311832CE9FC4FDFF8F001D0F80000D0F81C30C3F814C072B6D0F82410D1F800208A4240F01680D1F808105FEA01017FF4F5AF81F311880E
S35100000570DFF8CC11DFF8CC2181F8022062B6AFF3038072B6D0F82010FFF7E5BFC0F82410C0F81C20B2F82430A0F81A30D2F814C0BCE8FC4F83F311888CF30988DFF88801DFF89411C0F8041062B670474C
S351000005BC72B64DF804EDDFF87031D3F80030B3F8181001F10101A3F81810DFF874014DF8040DEFF31182EFF30581D3F834002DE90700EFF30880C3F834004FEA0100D3F830200AB900F04BB8904200F2CF
S351000006084880D3F82C20811AC0F24380D3F838204FEAD1014FEA810152F8011009B900F038B8D1F8002042B1824200F00880D1F8101011EA010F7FF4F4AF00F02AB8D1F80C00D1F8042062B64DF8043D77
S3510000065490475DF8043B72B6BDE80700C3F834005DF8040BB3F81810491EA3F81810D3F81C20D2F8280010F4805F40F0098039B9D3F82410D1F80010914218BFFFF735FF62B65DF804FBD3F82820FFF71D
S351000006A0D6BF72B62DE9F100DFF88830D3F80030D3F834C00CF1100C5CF804EBDFF8900020F00100CCF818009CE8FF005DF804CBACF1040C2CE9FF00BDE8F0008CF3088862B670472DE9024090F8001080
S351000006EC11F0800F03BF41F0800180F8001080EA00004FF08000BDE80280EFF309807047EFF30880704780F308887047EFF30380704762B6704772B670477046704778467047EFF3148070479857FF1FFD
S3510000073800ED00E00000001020ED00E0FF00000000000008000000005706000008B512F03BF938B101201AF00DFF0146DFF8100019F07CFE0020C043BDE808407047C0464006FF1F10B582B004468E4637
S351000007849446009304982146019000207246634600F09EFB02B0BDE81040704710B582B004468E469446009304982146019001207246634600F08CFB02B0BDE81040704710B582B004468E4694460093CB
S351000007D004982146019002207246634600F07AFB02B0BDE81040704708B5DDF808C08E46CDF800C00EF0780CCCF3C30EDFF810C001F007015CF82EC0E047BDE808407047A006FF1F2DE9F0410026904684
S3510000081C1F464FF0FF3404284FD109B903244CE0117890784840FF2846D15178D0784840FF2841D100250AE028460EF049FE01210EF08EFE10F0080018BF761C6D1C0EF02DFE8542F0DB012E2CD10026B4
S351000008683D4624E030460EF035FE01210EF07AFE10F0080018D098F80000F87198F80200787298F80100387298F80300B87298F80000387398F8010078733046294612F0C5F912F097FA002469376935CA
S351000008B4761C0EF0FFFD8642D6DB02E0052400E005242046BDE8F04170470000027E0023914208BF012321D0427E914208BF01231CD0827E914208BF012317D0C27E914208BF012312D0027F914208BF8A
S3510000090001230DD0427F914208BF012308D0827F914208BF012303D0C27F914208BF01231846704738B5054600240EF0C5FD854205DA28460EF0D2FD04F046FA04462046BDE8384070470000F8B5002421
S3510000094C07460E461546002813DB0EF0AFFD87420FDA38460EF0BCFD1EB1761E0CBF0124002010B10DB144F4005410B121460EF0D3FDBDE8F840704710B50446002809DB0EF094FD844205DA20460EF0FB
S35100000998A1FD80210EF0C2FDBDE810407047000070B5DFF858500446002824DB022822D2FF2A08BF2A5C02F00702FF2922F0180208BF295C00D0C90001F018011143C9B2FF2B21F0600208BF295C00D0F6
S351000009E4590101F060011143285CCEB2864204D02046314612F04AFC2E55BDE8704070471058FF1F0021002806DB022804D218214143DFF808004158084670471458FF1F002806DB022804D21822424331
S35100000A30DFF80400815070471458FF1F38B50546FFF7E2FF044628460021FFF7EBFF204603F0B4FABDE838407047000008B5FFF7D3FF002808BF4FF0FF3001D003F0C4FABDE8084070470000002801DBD8
S35100000A7C022801D300207047182200FB02F3DFF81420D050DFF81000C154DFF81000C018001D70471858FF1F1C58FF1F1458FF1F08B50146006809790022FFF747FF0020BDE808407047000038B505467D
S35100000AC8FF24FFF79DFF78B1DFF8241003F0DCFA50B9182005FB00F1DFF818004058854204BFDFF81400445C2046BDE838407047AD0A00001858FF1F1C58FF1F0FB4002801DB022802D3002004B07047FA
S35100000B14182100FB01FCDFF8241001AB41F80C00DFF81C0000EB0C0203CB03C203CB03C2DFF810006044001D04B070471858FF1F1C58FF1F1458FF1F10B50446002801DB022803D30020BDE810407047B4
S35100000B6000F02EF8002808BF002005D01820DFF81010604308180830BDE810407047C0461458FF1F10B50179036801291EBF01210171C46804D1002101718268C168541A0179007C20B10120012908BFB0
S35100000BAC0020C1B218460122FFF7C8FE2046BDE81040704708B5FFF721FF30B1DFF8161003F060FA08B9012000E00020C0B2BDE808407047C046850B000000000FB430B406AA92F81EC0D37F92F8385066
S35100000BF843EA0C2492F8293003FB05FCC0F804C092F828306B4383600023037392F8212012F0200508D012F080021EBF03700CEBDC7004EB600411D1012205B9002202734CB9D2B2002A0CBF0122002293
S35100000C44D3B201220270846802E00022FF23027001B10B70204630BC04B070470FB4F0B59FB00746002803DB0EF024FC874205DB1FB00020BDE8F04004B070473846FFF79DFF00284BD03846FFF75EFFB2
S35100000C90044608B9002643E01DAD6B4627AA612112F8010B03F8010B491EF9D125AB2A46082113F8010B02F8010B491EF9D10CCD19A800210026FFF78FFF05463846FFF7C5FE002824DB19A90A7B217BFA
S35100000CDC8A4201BF1B9FA1688F421A9B06BF61688B42002616D119A9227809788A4208D1281A90FBF3F103FB110101B90126F6B208E0E919081A90FBF3F103FB110101B90126F6B230461FB0BDE8F0408F
S35100000D2804B070470FB410B59CB000231A936C460DF1880E4FF0650C1EF8013B04F8013BBCF1010CF8D121AB1B788DF86C3021AB01331B788DF86D3021AB02331B788DF86E309DF887308DF86F301B9B55
S35100000D7400F006F81CB0BDE8104004B0704700000FB42DE9F843A0B00DF1B0080DF1640907460E4615460028C0F291800EF08AFB874280F28C80384631462A46FF23FF24FFF7F8FDFF2E00F072803846BB
S35100000DC089F80040FFF73AFE022E30D11EAC6B462DAA612112F8010B03F8010B491EF9D12BAB2246082113F8010B02F8010B491EF9D10CCC19A91AAC2046FFF7F5FE80461D9800900ECC3846FFF77CFE68
S35100000E0C0346DFF8BC204046002103F00FF9044638462146FFF700FE74BBFF2089F800002AE0002446B1701E02BF98F8391098F83A0001FB00F405E098F8381098F83A0001FB00F498F8680000B914B908
S35100000E5889F8006012E038463146FFF709FE0346DFF864202046002103F0E2F8044638462146FFF7D3FD0CB989F80060022E05D199F80000FF2818BF012200D1002299F800103846D2B2FFF753FDFF2D30
S35100000EA40DD03BA9023111F815203BA9033111F8151041EA0221384689B20EF079FB20B0BDE8F84304B07047850B0000AD0A00002DE9F8479BB082469146DDF89080259C38B1012805D0022818BF4FF09D
S35100000EF0FF3040F0AB8022B91BB00520BDE8F847704708464146224600F094FA78B111F05FFD38B101201AF031FB0146DFF8360119F0A0FA1BB00420BDE8F847704700254746002C40F389803846494696
S35100000F3CFFF7C8FC68B911F045FD002800F07A8001201AF015FB0146DFF8020119F084FA70E0BAF1000F1DD0BAF1010003D0401E08BF02261DE0012625B998F8340010F0040006D1012D06D198F8340023
S35100000F8810F0080001D002260DE097F8290010F0040018BF002606E097F82900002610F0040018BF01266B463A1D652112F8010B03F8010B491EF9D1387831468DF868007878FF228DF86900B8788DF806
S35100000FD46A00F8788DF86B001A9B2846FFF7A4FE11F0F4FC50B3BAF1000F16D0BAF101000AD0401E1AD101201AF0BEFA0146DFF85A0019F02DFA19E001201AF0B5FA0146DFF84A0019F024FA10E00120E5
S351000010201AF0ACFA0146DFF83E0019F01BFA07E001201AF0A3FA0146DFF82E0019F012FA69376D1C641E7FF477AF01201BB0BDE8F8477047C0465406FF1F5D06FF1F6606FF1F6F06FF1F7806FF1F81063A
S3510000106CFF1F00002DE9F0439BB0229C1D4688462946224600F0D8F920B11BB00420BDE8F04370470026012712F0C6FC211C2B46002C10DD93F8522012F0800218BF012609D193F8542012F0010218BF9D
S351000010B8002702D16933491EEED10EB907B928B11BB04FF0FF30BDE8F043704708F03800C0F3C701012008F007074FF0000900FA01F86E46002C24DD95F8530018EA00001AD02B1D3246652113F8010BEB
S3510000110402F8010B491EF9D12878FF218DF8680068783A468DF86900A8788DF86A00E8788DF86B001A9B4846FFF7FEFD693509F10109641EDAD101201BB0BDE8F043704770B5049C1E460D46314622462F
S3510000115000F070F918B10420BDE87040704705F00700002506EB4006002C18DD2846FFF7D9FB96F8422096F8431041EA022188420CBF01200020C0B2012100B100212846C9B202F0D5F969366D1C641E9C
S3510000119CE6D10220BDE87040704700002DE9F8419BB0229D1E460F4631462A4600F03CF978B111F007FC38B101201AF0D9F90146DFF8C40019F048F91BB00420BDE8F8417047072002F0B6F90024002D22
S351000011E84EDD30463946FFF76FFB60B911F0ECFB002841D001201AF0BDF90146DFF8900019F02CF938E00DF1600C6B4606F10C025D2112F8010B03F8010B491EF9D1334662460C2113F8010B02F8010BCF
S35100001234491EF9D19CE80E002046FFF70FFD0121804600B100212046C9B202F077F911F0BDFB98B1B8F1000F08D001201AF08CF90146DFF8340019F0FBF807E001201AF083F90146DFF8240019F0F2F8ED
S351000012806936641C6D1EB0D102201BB0BDE8F8417047C0465406FF1F5D06FF1F8A06FF1F9406FF1F10B501F03F00840011F040000CBF01200020C0B212F098FC8442CCBF01200020C0B202F043F90220E8
S351000012CCBDE810407047000070B5049C1D460E462946224600F0A8F818B10420BDE8704070473920704300F2395140F6354041434FF47A7091FBF0F082B2DFF89C10002C45DDE00800F01F8085F82D6072
S351000013188A8185F896608A81D23585F82D608A8185F896608A81D23585F82D608A8185F896608A81D23585F82D608A8185F89660D2358A81401E7FF4E1AF14F0040F00F00E8085F82D608A8185F89660A7
S351000013648A81D23585F82D608A8185F896608A81D23514F0020F00F0078085F82D608A8185F896608A81D23514F0010F00F0038085F82D608A810120BDE870407047C046849CFF1F38B5049C0D46194619
S351000013B0224600F03FF818B10420BDE83840704715F0400018D0482D18BF4FF0FF301DD10025002C0CDD2846FFF7F2FB012100B100212846C9B202F0ABF86D1C641EF2D10220BDE83840704705F03F00D1
S351000013FC362814BF01200020C0B202F0A3F80220BDE838407047000008B501201AF0B0F80146DFF8100019F01FF80020C043BDE808407047E006FF1F01EB000C0123101C002A0ADD9CF80F1011F0800101
S3510000144808BF002303D00CF1690C401EF4D11846704700002DE9F84F8CB099464B1E009101924FF0FF3A042B00F23981137813B94FF0030A33E1052B0AD201201AF07AF80146DFF8660218F0E9FF4FF07E
S35100001494050A26E192F80380012902D1B8F1010F07D0169A4946FFF7C3FF10B14FF0040A17E10198002600780024051F01984F4640780390019890F802B008EB050002908BE00020069007F10B00079049
S351000014E007F12800089007F13200099007F141000A9007F156000B90009806A951F8200010B94FF0050A70E00178029888420ADD01201AF033F80146DFF8DA0118F0A2FF4FF0050A61E00098012853D13C
S3510000152CB8F10C0F50D2B8F1040F19D3039858450AD001201AF01CF80146DFF8B20118F08BFF4FF0050A4AE0B97B0398814204DB594502DC0120A04006434FF0000A3EE0B8F1010F25D1032D0ADA012031
S351000015781AF000F80146DFF87E0118F06FFF4FF0050A2EE00199FA79091D0B780120934218BF002004D14B783A7A934218BF0020002808BF4FF0050A1BD00120A04006434FF0000A15E0012019F0DCFF40
S351000015C40146DFF83A0118F04BFF4FF0050A0AE0B97B0398814204DB594502DC0120A04006434FF0000A6937641C169804908442FFF66FAF00200590049800244F464FF0010B002868DD0BFA04F030420A
S351000016105CD0059806A9069009F10B00079009F12800089009F13200099009F141000A9009F156000B90009851F8200008EB00030198011D002D3DDDE80800F01B800A781A704A78891C5A700A789B1CB9
S3510000165C1A704A78891C5A700A789B1C1A704A78891C5A700A789B1C1A704A78891C5A709B1C401E7FF4E5AF15F0040F00F00C800A781A704A78891C5A700A789B1C1A704A78891C5A709B1C15F0020FEB
S351000016A800F006800A781A704A78891C5A709B1C15F0010F00F002800A781A702046394611F0B4FA04986937641C401E09F16909049096D11EB111F07DFB4FF0000A50460CB0BDE8F84F7047C046F50657
S351000016F4FF1F0A07FF1F4307FF1F8707FF1FC207FF1F00002DE9F04F87B0054610989246109007208B4699464FF0FF3401F016FF9AF8000008B9032491E0032809D0012019F022FF0146DFF8200118F095
S3510000174091FE052485E0109A28464946FFF772FE08B104247DE01098002600286EDD09F10B00029009F128000390002709F13200049009F14100059009F1560001970690BBF1060F28BF052451D201A890
S3510000178C50F82B80B8F1000F08BF052449D04FF6FF7100A8018000AD444605E014F8011B284602F085FB7F1C98F800008742F5DB00A80388002203F47F4001129AF80100814205D19AF80200D9B2814265
S351000017D808BF0122D5B2012105B100213046C9B201F0AAFE002411F0EFF8E0B1012019F0C1FE014606F1410018F042FE012019F0B9FE0146DFF8500018F028FE002D14BFDFF84850DFF84850012019F0F9
S35100001824ABFE0146284618F01BFE1098761C401E09F16909109090D111F0C8F838B1012019F09AFE0146DFF8200018F009FE204607B0BDE8F04F7047F907FF1F0D08FF1F1408FF1F1C08FF1F2408FF1F66
S351000018702DE9F84787B00546109888461090072017461E464FF0FF3492F8009001F060FEB9F1000F08BF032457D0B9F1030F0CD0B9F1040F09D0012019F068FE0146DFF8A60018F0D7FD052447E0109A50
S351000018BC28463146FFF7B8FD08B104243FE000200090109800250DF1040A002837DD0098B8F1060F019006F10B00029006F12800039006F13200049006F14100059006F15600069028BF05241BD25AF89C
S35100001908281009B9052416E07B78BA78CC18C95C00208A4206D1B9F1030F1DBFFA7861788A420120C0B2012100B100212846C9B201F002FE0024109869366D1C401E1090C7D1204607B0BDE8F847704731
S35100001954C046F907FF1F00002DE9F041069D80461E4607200C46174601F0F0FD404631462A46FFF75DFD18B10420BDE8F041704764BB387818B90320BDE8F041704703280BD0012019F0F0FD0146DFF893
S351000019A0A40018F05FFD0520BDE8F04170470024002D11DD7978F079814203BFB978307A8142012108BF00212046C9B201F0B8FD6936641C6D1EEDD10020BDE8F0417047012C21D1387818B90320BDE871
S351000019ECF041704702280BD0012019F0C1FD0146DFF8440018F030FD0520BDE8F04170470024002D06DD7978204601F0D1FD641C6D1EF8D10020BDE8F0417047012019F0A7FD0146DFF8140018F016FDA5
S35100001A384FF0FF30BDE8F0417047C046F907FF1F2708FF1F2DE9F047DFF8444316461D4600293FD1117809B9032694E1062904BF1878814208D0012019F084FD0146204618F0F4FC052686E14FF0FF31F6
S35100001A84411801245E1C002907DD3078FF2818BF002402D1761C491EF7D14CB9012019F06BFD0146DFF8F00218F0DAFC05266CE101265C1C501C04E010F8011B04F8011B761C19788E42F7DB0020294631
S35100001AD0002611F0AFF811F081F958E1012940F08D80117809B9032651E1072902BF1878401C814208D0012019F040FD0146204618F0B0FC052642E19079012700F00F0800F0F0004FEA201907204FF0B7
S35100001B1CFF3401F017FD28784FF0FF314118721C05F1010A00290BDD9AF800301078834218BF002704D1521C0AF1010A491EF3D117B90024022637E0B9F1000F04BF0124022631D0A9F10100022810D80C
S35100001B6819F0010002D0002011F0DCFA19F0020002D0012011F0D6FA11F02CF9012402261CE0A9F10400022816D8A9F10300012410F0010004D0002011F068FA00B90024A9F1030010F0020004D00120D9
S35100001BB411F05EFA00B90024022601E04FF0FF36022E40F0E280B8F1000F06D1012004B10020C0B201F0C8FCD7E0B8F1010F08D1002C08BF002600F0D080002001F0BCFCCBE04FF0FF36C8E0022919D177
S35100001C00107808B90326C2E0022808D0012019F0B5FC0146204618F025FC0526B7E051782A4601F03C00801001F00301022601F0AFFCACE0032947D1117809B90326A6E00C2905D11878401E4000801CBB
S35100001C4C814208D0012019F093FC0146204618F003FC052695E007200124D77A01F072FC28784FF0FF3282180121731C05F10109002A10DD701899F80050407993F800802840804518BF002405D109F10B
S35100001C980109491C5B1C521EEED1002004B101200226022E40F06F803FB900280CBF01200020C0B201F056FC65E04FF0FF3662E0042956D1107808B903265CE0092808D0012019F04FFC0146204618F067
S35100001CE4BFFB052651E018784FF0FF31411892F8068001245F1C521C002909DD3B781078834218BF002403D17F1C521C491EF5D10CB9052639E0A8F10100022888BF052633D84FF00009AA46012702243E
S35100001D3007FA09F018EA000014D0484611F0F6F9F07905F10801E871F07905F10A02C0436872307A0870307A5146C0431070484610F068FF69350AF1690A09F10109641EDEDC11F033F8002609E0012077
S35100001D7C19F0FEFB0146DFF81C0018F06DFB4FF0FF363046BDE8F0477047C046F907FF1F3F08FF1F2708FF1F2DE9F0479EB006464FF0FF301A90269D279C8946072090461F4601F0C7FB48462946224648
S35100001DC8FFF734FB10B104201A9016E1B8F1000F40F00B81387810B903201A900DE1022801D33F280AD9012019F0C4FB0146DFF8160218F033FB05201A90FEE000F03F00811E787807F1020C00F0E00098
S35100001E14431C022CC4BF05201A9000F3F080002C2DDD0020FF221A901CAF002C27DDE00800F00F803A707A70BF1C3A707A70BF1C3A707A70BF1C3A707A70BF1C401E7FF4F1AF14F0040F00F006803A7053
S35100001E607A70BF1C3A707A70BF1C14F0020F00F003803A707A70BF1C14F0010F00F001803A70002900F07A8036B303EBC1082E461CAF8022211C002C40F37080B07B984215DB404513DAA0EB030A4FEA7E
S35100001EACAA090AEB59794FEAE9090AF007001CF8099042FA00F010EA090014BF01200020387069367F1C491EE2D151E013F080001CBF05201A904BD1AE461CAE03EBC1074FF080081B94002C42DD002083
S35100001EF804220EEB0001097E994215DBB94213DAA1EB03094FEAA90A09F0070109EB5A794FEAE9091CF8099048FA01F111EA090114BF012100213170401C0EEB0001097E994215DBB94213DAA1EB030902
S35100001F444FEAA90A09F0070109EB5A794FEAE9091CF8099048FA01F111EA090114BF012100213170401C521EC5DC1B98761C401E0EF1690E1B90BCD14FF000081CAE2F46002C3CDD3178012910D1B8F1E9
S35100001F90000F04D195F8340010F0040007D1B8F1010F05D195F8340010F0080000D00221E9463B1D652213F8010B09F8010B521EF9D13878FF228DF8740078788DF87500B8788DF87600F8788DF877007C
S35100001FDC1D9B4046FEF7A4FE761C693708F10108641ECBD107E0012019F0C2FA0146DFF8160018F031FA1A981EB0BDE8F0477047C046F907FF1F2708FF1F000010B582B004468E4694460093049821464F
S351000020280190002072466346FFF7B8FE02B0BDE81040704710B582B004468E4694460093049821460190012072466346FFF7A6FE02B0BDE8104070470220704738B50546002025B94FF6FF70BDE83840DA
S351000020747047C0F16704672805D215F8011B01F0E7FE641EF9D1BDE83840704708B518B182680AB108469047BDE8084070470000F8B507460E4615461C4658B100F0CCF90020B861F86138843846FE60DB
S351000020C03D617C6100F018F8BDE8F8407047000008B542689047BDE80840704708B582689047BDE80840704708B510B10C30FFF7CFFFBDE80840704710B5044600F0A6F900202060DFF810006060DFF8DD
S3510000210C1000A060BDE810407047C046A12100002122000030B587B0036905465A1C02611970C2680C46022A02DD143001F0C0FEE86802A9401E0131DFF850C0E8600B4610221CF8010B03F8010B521E37
S35100002158F9D100AADFF83CE0944609231EF8010B0CF8010B5B1EF9D104F0F00000110B5600A8037104F00F03C956417105F1170011461BF05DFC07B0BDE830407047C0463E0102004E01020018B4002239
S351000021A4C26111F4000304D111F0080208BF01222ED053BB11F0080227D0DFF85A30022203F1010CC0F81CC001F0700C4FEA1C1C83F800C0C46904F1010CC0F81CC001F4704C4FEA1C3C84F800C0C46945
S351000021F001F4FE0104F1010CC0F81CC0090C2170C1694FF0000C81F800C0C36102E0042203B90522104618BC70474458FF1F000008B54FF0000C01292AD1C369DFF85820934206D00C300221FFF72AFF44
S3510000223CBDE808407047591CC1615978082904BF4FF0010C82F802C0C269911CC161917831B10C300221FFF715FFBDE808407047BCF1000F04D100F00BF8BDE80840704700F01AF8BDE808407047C04602
S351000022884458FF1F10B5044600F0DCF801202060DFF810006060DFF81000A060BDE810407047C0463D230000C123000010B5044600F0C8F801202060DFF810006060DFF81000A060BDE810407047C046B2
S351000022D48D230000C123000038B504460C30C9B2FFF71CFFA069E8B904F10C000221FFF7CDFEE369228C981E0178581E007840EA0120824204D0DFF82C004078082801D1032500E00925DFF81C00E06175
S351000023202046FFF7E9FE03E02046002500F056F82846BDE8384070474458FF1F38B5054611F4000208D10C300221FFF7A1FE28460824FFF7D1FE15E001F03F02931CDA1E3C2A08D90C300221FFF792FE1B
S3510000236C28460724FFF7C2FE06E04FF6FF7283610284FFF7ADFF04462046BDE83840704738B5054611F4000208D10C300221FFF779FE28460824FFF7A9FE07E0042282614FF6FF720284FFF793FF04468B
S351000023B82046BDE83840704710B50446032906D10C300221FFF760FE2046FFF791FEBDE81040704710B5044600F034F802202060DFF810006060DFF81000A060BDE810407047C0460524000031240000B2
S3510000240438B5054611F4000208D10C300221FFF73DFE28460624FFF76DFE02E0FFF75CFF04462046BDE838407047000010B50446032906D10C300221FFF728FE2046FFF759FEBDE810407047DFF80C104F
S351000024504160DFF80C1081607047C046652400006D2400000020C04370470000704700002DE9F0410446884617461D4600F10C06D0B100F041FB7760B560C6F800800027072504F10C00F9B200F050F82D
S3510000249CF1197F1C08736D1EF5DC0020F06130627062B062F062204600F04EF8BDE8F0417047000008B5072914D0C368DB7D03F0E00343F08003C3F3070CBCF1800F38BF4FF0800C43181B7E0CFB03F378
S351000024E8B2EB232FD8BF0721012902BF4FF0000CDFF8303083F800C00ED0002903BF4FF0010CDFF8203083F800C04FF0FF3C1CBFDFF8103083F800C043689847BDE808407047C0465608FF1F08B58268D7
S351000025349047BDE80840704731B1491E06BF006890F82B0000207047006890F82C00704710B5044600F0D6FA00202060DFF810006060DFF81000A060BDE810407047C04649260000A1260000F8B5074628
S351000025800E46002507243846E9B2FFF7D7FF07EB050C9CF80C3003FB06F2D11102EB116109120129B8BF01215B1A8342B8BF03466D1C8CF80C30641EE5DCBDE8F8407047017BC174417B0175817B4175E9
S351000025CCC17B8175017CC175417C0176817C4176704700004FF0010C09B14FF0000CC36A4CEA4303C362836A5B1E8362036A5B1C0362C3695B1CC361CBB2012B0BD800F1130313F801C0624508D9624432
S3510000261802EBD27252105A5402E0426A521C426221B1491E04D0891F04D005E0312104E0302102E02D2100E02A2180F83010704770B504460E461546012912D10C30FFF7B3FF0021082060632163A1632D
S3510000266404F10C0031462A46FFF7B8FF2046012500F01EF80DE00C30FFF7B0FFE06A802806DB8038E06204F10C001221FFF774FF00252846BDE870407047000008B5012903D10021816200F085F9BDE854
S351000026B00840704710B5044600F026FA01202060DFF808006060BDE8104070476528000018B44FF0000C072100EB0C04227BC2EBC2039A1003EB5272E37CD2109342CCBF237322730CF1010C491EEDDC96
S351000026FC18BC704718B4C16A4FF0010C01F07001C1F307144168002200290CDD03681B19D318DB7B13F0800308BF4FF0000C02D06932491EF2D1604618BC704718B583B00446FFF7DFFF98B100A9DFF889
S3510000274838C00B460A221CF8010B03F8010B521EF9D104F1310080221BF0C8F903B0BDE8184070472046FFF7AFFF0020206203B0BDE818407047C0465701020030B585B000A90331DFF85CE000AB0546FB
S351000027948C460F241EF8012B0CF8012B641EF9D1DFF8482000AC92F800C083F800C092F801C083F801C092789A70C26A313002F07002120931321A7080221BF07DF905F13100214680221BF08BF92846DC
S351000027E0FFF7AAFF05B0BDE830407047610102007001020030B585B000A90331DFF85CE000AB05468C460E241EF8012B0CF8012B641EF9D1DFF8482000AC92F800C083F800C092F801C083F801C09278ED
S3510000282C9A70C26A313002F07002120931321A7080221BF045F905F13100214680221BF053F92846FFF772FF05B0BDE830407047730102008101020038B504460C30FFF7B9FE216B022904DD204603254F
S35100002878FFF76CFE2AE0606B0028C8BF012525DC002904DCA06BC0B201F0EAFA40B1002020630F2060632046012500F061F815E0A16B11F400000BD111F0080008D104F10C00FFF763FF20460225FFF7AD
S351000028C447FE05E00F2060632046012500F004F82846BDE83840704710B5044600F012F902202060DFF808006060BDE810407047F928000038B504460C30FFF76FFE606B0028C8BF012528DC206B0028A7
S3510000291004DD20460525FFF71DFE20E0A16B01F4FE40C0F30720C9B201F0B2FAA36B47F6FF7103EA010203F4FF01C90B41EA0221A16320B120460525FFF704FE07E004F10C00FFF74FFF20460225FFF7F2
S3510000295CFBFD2846BDE838407047000010B5044600F0CCF803202060DFF808006060BDE8104070478529000038B505460C30FFF729FE286B022804DD28460324FFF7DCFD08E0686B0028C8BF012403DC8F
S351000029A828460424FFF7D2FD2046BDE83840704710B5044600F0A4F804202060DFF810006060DFF81000A060BDE810407047C046F52900004D2A000008B518B182680AB108469047BDE808407047000040
S351000029F470B506460D461446012912D10C30FFF7DDFD0021092070633163B16306F10C0029462246FFF7E2FD3046012400F01CF80DE00C30FFF7DAFDB06A6428B8BF062405DB06F10C000321FFF7D0FF3E
S35100002A4008242046BDE870407047000008B5022901D1FFF77FFDBDE80840704710B5044600F052F805202060DFF810006060DFF81000A060BDE810407047C046852A0000F92A000030B583B004460C3038
S35100002A8CFFF7A8FD606B0028C8BF012525DC206BF8B9A06BC0B240F40000A06304F10C00FFF710FE0020A06220460225FFF77EFF00A9DFF832C00B460A221CF8010B03F8010B521EF9D104F13D00802281
S35100002AD81AF0F8FF03E020460725FFF769FF284603B0BDE830407047C04684010200000008B5022901D1FFF729FDBDE808407047DFF80C104160DFF80C1081607047C046212B0000292B00000020C043FC
S35100002B24704700007047000008B50CF07BFCDFF80C100860BDE808407047C0468858FF1FDFF80800DFF80830006818478858FF1F35F4000008B5D0F8601301B18847BDE80840704708B5D0F8641301B117
S35100002B708847BDE80840704730B585B0C4B224F00800042840D8DFE800F0030F27331B1B012018F0F3FC0146DFF82C0117F062FC05B0BDE830407047012018F0E7FC0146DFF8180117F056FC05B0BDE818
S35100002BBC30407047012018F0DBFC0146DFF8040117F04AFC05B0BDE830407047012018F0CFFC0146DFF8F00017F03EFC05B0BDE830407047012018F0C3FC0146DFF8DC0017F032FC05B0BDE83040704753
S35100002C0814F080002AD0012004F03F0518F0B2FC0146DFF8C00017F021FC012018F0AAFC0A24014695FBF4F0303017F029FC012018F0A0FC014695FBF4F004FB1050303017F01EFC012018F095FC014646
S35100002C54DFF8880017F004FC05B0BDE83040704700ADDFF87C302A46112113F8010B02F8010B491EF9D1012018F07EFC0146DFF8640017F0EDFB012018F076FC014604F0F0000011285617F0F5FB0120A6
S35100002CA018F06CFC014604F00F00285617F0ECFB012018F063FC0146DFF8240017F0D2FB05B0BDE8304070475708FF1F5E08FF1F6508FF1F6C08FF1F7308FF1F7A08FF1F7D08FF1F8E0102008008FF1F6C
S35100002CEC38B50546002000AC20800CF08BFBD5F85C0200A9022217F029FB02281CBF0720208000A9D5F8C800098801F023FABDE83840704778B581B00446FFF70DFFDFF8B6100028486050DD80284ED2C4
S35100002D3804F5187232F8106000AD6E70FF2122F810106878FF280DD10021D4F85C02C4F20401002217F05CFBC8B3DFF8820017F02DFB34E00FF030FE90B1012018F002FC0146DFF86E0017F071FB687851
S35100002D84FFF7F8FE012018F0F7FB0146DFF85A0017F066FB06F44050011300A801700A21D4F85C02C4F2040100AA17F033FB18B1DFF83A0017F004FB00A9D4F85C020131012217F091FA012803D0DFF803
S35100002DD0260017F0F7FA0EF02DFC01B0BDE8784070478858FF1F8308FF1FA708FF1FAC08FF1FB308FF1FE908FF1F0000DFF804301847C046212D00002DE9F84F86B0824600200091059099E0FFF794FE19
S35100002E1C059A834612F0004100F0758001280DDD0FF0D0FD002800F08B80012018F0A0FB0146DFF8280117F00FFB81E012F0804000F07E8002F47020000C029002F44050000B019002F47C60C0F387153E
S35100002E68009805A902F03F0901F092F9002869D10598082487B24FF0020810F0004061D007F47F400612380287B209F03F0040F0800105F03F0040F080020198000300F4405990B2049088B20390029884
S35100002EB4401CC5B228E017F4004014BF0398049820F4405040EA090081B2780087B2761E641ED84506DDB8F1800F3CBF0AEB4800A0F86012A844C8F30708002E01DD002CE1DC009805A901F04DF928BB46
S35100002F00059911F0004001D08FB21024002EEEDC1CE002F4FE01C1F307434FF20C01D4B24FF40062C4F20F010A603BB1834205DB802B3CBF0AEB4300A0F86042DFF82C004068834202D15046FFF7EAFE6A
S35100002F4C009805A901F022F900283FF45FAF0EF073FB06B0BDE8F84F7047C0460909FF1F8858FF1F78B581B0064600200D46009000AC04E0D6F89001009901F0EBF82846214601F003F90028F4D001B017
S35100002F98BDE87840704700002DE9F843DFF8C280074600200090D8F808000E4660B9DFF8B600DFF8B610C8F80800C8F80C00D7F858320222FFF750FA00240DF100093CE0009AD8F8080002F0070102F403
S35100002FE47F42C2F30722FFF769FA05460FF0EEFC20B3D8F8080090F93C0068B1012018F0BBFA0146D8F8080090F93C0017F03AFAD8F8080080F83C40D8F8080090F93D0060B1012018F0A8FA0146D8F88C
S3510000303008003D3017F016FAD8F8080080F83D40022D06D1D8F80810D7F8C800896B01F087F83046494601F09FF80028BCD00EF01FFBBDE8F8437047C0468858FF1FBC5AFF1FD9C1FF1F00002DE9F841DD
S3510000307C81B0DFF88A700025B8680E460095D0B3DFF87E400DF100082FE00FF09BFC30B1012018F06DFA0146204617F0DDF9B8680099FFF73FFA0FF08DFCF0B1B86890F93C0058B1012018F05BFA014650
S351000030C8B86890F93C0017F0DBF9B86880F83C50B86890F93D0050B1012018F04BFA0146B8683D3017F0BAF9B86880F83D503046414601F04DF80028C9D001B0BDE8F84170478858FF1F2809FF1F000043
S35100003114DFF81C00027A90F871108A4201BFC17990F870008142012018BF00207047C046D9C1FF1F2DE9F04700248246884617464FF0000925460126FFF7E2FFC0B112E048460CF0C1F9012182460CF041
S3510000316005FA10F0400006D1484644EA0A04FDF727FD0543002609F101090CF09DF98145E8DB14E00CF098F9824510DA50460CF0A5F904465046FDF713FD0546204601210CF0E4F910F0400008BF002679
S351000031ACF6B206B91CB90720BDE8F04770472046012101260CF0D4F9044627B110F4404008BF00263E70DFF84C6096F8540010F0010009D010F020FC30B196F8540010F0020008BF022012D014F08800AB
S351000031F818BF02200DD11DB10420BDE8F04770470120B8F1000F08BF0220204214BF00200120BDE8F0477047D9C1FF1FDFF80430002218473931000010B5D0F890010C4600F092FF0FF0C8FB10B12046D6
S35100003244FFF798FCBDE8104070470000DFF80800012141747047C0468858FF1FDFF80800002141747047C0468858FF1FDFF80400407C70478858FF1F2DE9F04F83B0814600208A4600900FF0A1FB38B182
S35100003290012018F073F90146DFF85E0117F0E2F80020DFF85A71002501900DF1080B0224DFF84E010021007C02AA3818C67B01988BF800002846FFF737FF8046022808D0032806D0FF2128460A460023CA
S351000032DCFDF764FB1AE0FF2128460A464346FDF75DFB9BF8000088B9DFF8060190F8330010F004001CBF0120009007D197F8330010F0080002D02846FDF736FB16F07F000CD10FF057FB002839D0012097
S3510000332818F028F90146DFF8D60017F097F830E00CF0BEF885422CDA28460CF0CBF81AEA000002D1FFF7E2FE18B3300400F4FE0020F00F01E80000F0080008F00702084342EA0006FFF780FF58B90FF043
S351000033742DFB80B1012018F0FFF80146DFF8860017F06EF807E0B9F1000F04D0D9F800003146FFF74BFFFFF7BBFE58B10FF016FB68B1012018F0E8F80146DFF85E0017F057F804E069376D1C641E3FF700
S351000033C077AF009848B1002403E02046FDF7DAFA641C0CF071F88442F7DB0FF0F9FA38B1012018F0CBF80146DFF8260017F03AF803B0BDE8F04F7047C0463109FF1FD9C1FF1F8858FF1F4009FF1F4709F5
S3510000340CFF1F4E09FF1F5509FF1F000018B484B000240DF1000C8CF800408CF801108CF802208CF8033000280DDB02280BD2DFF81C1000AB01EB0012102113F8010B02F8010B491EF9D104B018BC7047FA
S351000034589C5AFF1F10B584B004464FF0010E00A880F800E04FF0000E80F801E080F802E080F803E001714271837106A90978DDF81CC0C1719CF80020082A08D302AA08211CF8010B02F8010B491EF9D109
S351000034A403E002A861461AF027FA002C0DDB022C0BD2DFF81E0000AB00EB0412102113F8010B02F8010B491EF9D104B0BDE8104070479C5AFF1F000084B04FF0000C00AA072382F800C0537082F802C038
S351000034F082F803C000290DDB02290BD2DFF8282000AB02EB011C10221CF8011B03F8011B521EF9D100AB102213F8011B00F8011B521EF9D104B070479C5AFF1F08B5002207211346FFF770FFBDE808402A
S3510000353C7047000008B500221346FFF767FFBDE80840704770B506460025022428463146FFF7F0FF6D1C641EF8DCBDE87040704710B504460720FFF7EDFF0C2304B10A23002021460222DBB2FFF748FF3F
S35100003588BDE810407047000070B582B0064607200D461446FFF7D8FF0A200090002031462A460C230194FFF755FF02B0BDE870407047000008B50B4607210022DBB2FFF727FFBDE8084070472DE9F04F7A
S351000035D487B0804601F07000C0F30714DFF830020DF10C090474FFF739FEFFF79DFADFF824024FF0000A0090001901900220029003A85146FFF768FF5046FFF78DFF99F8000000286AD099F8084005ADC2
S35100003620012C0DDC0FF0D4F9002800F0D680012017F0A4FF0146DFF8E40116F013FFCCE099F80520120399F8070002F4405399F804208001120400F47C6199F8060002F4702242F0404200F03F001A430E
S3510000366C104341EA0007D8F890013946002600F071FD40F2000BC9F6FF7B23E015F8010B2EB9401EC00080B2FF2888BFFF200002761C80B2A642BEBF15F8011B0843761C4FF00051A642B8BF002182B258
S351000036B807EA0B0040F00040084342EA0007D8F89001394600F048FDA642D9DB0FF07CF9002800F07E80012017F04CFF0146DFF8380116F0BBFE74E099F8020018B90198C07B89F8020099F8020010F070
S351000037047F000CD10FF062F9002864D0012017F033FF0146DFF8080116F0A2FE5BE099F8010007280FD199F8030060B90FF04EF9002850D0012017F01FFF0146DFF8E40016F08EFE47E0009890F82900D9
S3510000375010F0400020D050460021FFF763FDDFF8B81091F8342012F0010102D0A0B1042812D099F80200401E000400F4FE0112F0800021F0FF0014BF40F0810140F08001D8F8900100F0E4FC99F80200C5
S3510000379C000400F4FE0199F8030000281FBF21F0FF0100F03F0040F0800001430CD199F8010000F007024FEACA0021F00F0100F00800084342EA00014046FFF72BFD01980AF1010A69300190009869307C
S351000037E800900298401E02903FF708AF0FF0ECF838B1012017F0BEFE0146DFF8280016F02DFE07B0BDE8F04F7047C0468858FF1FD9C1FF1F5809FF1F5F09FF1F4009FF1F4E09FF1F5509FF1F2DE9F041AF
S35100003834804607200F46FFF789FE0026022530460121FFF7EDFC04463046FDF739F9FF2813D0042C02D0E1B201290ED808B9012406E0012808BF002402D0022808BF04243046E1B2FFF762FE03E03046A7
S351000038802146FFF75DFEFFF745FC10B9761C6D1ED7DC40463946FFF79BFEFFF7D9FCBDE8F04170472DE9F04700F07000C0F30711DFF86800DFF86880DFF86890DFF868A0002547180224FE7B16F08000B5
S351000038CC0AD00FF07FF8D8B1012017F051FE0146504616F0C1FD13E001250FF073F878B1002E284606DD17F043FE0146484616F0B3FD05E017F03CFE0146404616F0ACFD6937641ED9DC2846BDE8F047F8
S351000039187047C046D9C1FF1F7209FF1F6C09FF1F6609FF1F70B586B00B4641780546009201F00F04A978EA1CDFF86450007855F82450A8470646B0F1FF3F24D10FF03CF808B301ADDFF84C302A4611215E
S3510000396413F8010B02F8010B491EF9D1012017F003FE0146DFF8340016F072FD012017F0FBFD0146285716F07DFD012017F0F4FD0146DFF81C0016F063FD304606B0BDE8704070470006FF1F9F010200B6
S351000039B07809FF1F7E09FF1F2DE9F84FDFF85C6205460020009070690C4648B9DFF85002DFF850127061D5F858320222FEF762FB4FF00008DFF84072DFF840B2DFF840A209E170690099FEF76BFB814698
S351000039FC0EF0E8FFF0B1706990F9220058B1012017F0B6FD0146706990F9220016F036FD706980F82280706990F9230050B1012017F0A6FD01467069233016F015FD706980F82380B9F1090F00F2D480BC
S35100003A48DFE809F0BA05711DD2D2D2D2D2C60098FFF724FF60B90EF0B7FF002800F0CF80012017F087FD0146384616F0F7FCC6E010F090F800992846FFF7D6FEBFE07269D069D1681269FFF74DFF04281C
S35100003A940CD10EF09BFF002800F0B380012017F06BFD0146384616F0DBFCAAE070B910F073F80EF08BFF002800F0A380012017F05BFD0146504616F0CBFC9AE002280ED110F062F80EF07AFF002800F077
S35100003AE09280012017F04AFD0146584616F0BAFC89E003280DD10EF06BFF002800F08380012017F03BFD0146DFF8280116F0AAFC79E00EF05DFF002800F07580012017F02DFD0146DFF8100116F09CFC4B
S35100003B2C6BE07269D069D1681269FFF7F9FE04280BD10EF047FF00285FD0012017F018FD0146384616F088FC57E070B910F020F80EF038FF002850D0012017F009FD0146DFF8CC0016F078FC47E0012841
S35100003B7806D110F00FF800992846FFF755FE3EE0022806D110F006F800992846FFF71CFD35E0032804D170690121FEF7A1FA2EE00EF012FF58B3012017F0E4FC0146DFF8880016F053FC22E00EF006FFCA
S35100003BC4F8B1012017F0D8FC0146DFF8740016F047FC16E00EF0FAFE98B1012017F0CCFC0146DFF8600016F03BFC0AE00EF0EEFE38B1012017F0C0FC0146DFF84C0016F02FFC204600A900F0C5FA00282D
S35100003C103FF4EFAEBDE8F84F7047C0468858FF1FF859FF1FD9C1FF1F8209FF1FA909FF1F9009FF1FD509FF1FEB09FF1F000AFF1F170AFF1F250AFF1F330AFF1F4E0AFF1F2DE9F84181B0DFF88A7000258B
S35100003C5C78690E460095D0B3DFF87E400DF100082FE00EF0AFFE30B1012017F081FC0146204616F0F1FB78690099FEF729FA0EF0A1FEF0B1786990F9220058B1012017F06FFC0146786990F9220016F07E
S35100003CA8EFFB786980F82250786990F9230050B1012017F05FFC01467869233016F0CEFB786980F823503046414600F061FA0028C9D001B0BDE8F84170478858FF1F630AFF1F000000230360416082600D
S35100003CF4002070472DE9F041026807460A6001600B680E46002B07BF0022C1F890211A1DC1F890211CBF01F1CC02C3F8C82042680AB9002405E08368DA4312EA430408BF0124826822438260081D7968D7
S35100003D40224600F007FA05466400B86879682043B86006F1CC00224600F0FCF980466400B86879682043B86006F5CA70224600F0F1F935B9B8F1000F18BF4046BDE8F04170472846BDE8F04170470000F5
S35100003D8C70B50E46002405680AE0D5F8540230B105F5CA70314600F0DDF900B104462D68002DF2D12046BDE8704070472DE9F0418046002416461F4640F8044B00F0B6F9054608F1CC003146C8F8C84023
S35100003DD800F0AEF9064608F5CA703946C8F8904100F0A6F90699002DC8F8581204D126B13046BDE8F04170472846BDE8F041704738B5DDF810C00546CDF800C0FFF7D0FF044678B90598FF21C5F85C02C6
S35100003E2405F518704FF4807219F08AFD0698C5F860030798C5F864032046BDE83840704708B58C2200F044F8C0B2BDE80840704708B54AF2010200F03BF880B2BDE808407047000008B5014601F0F800BB
S35100003E70482804BF01F0070080F0010003D00020052200F061F8C0B2BDE808407047000010B502460C4611464FF6FF70132200F019F804F0F001132200F014F804F00F01484000F00F00BDE810407047FE
S35100003EBC10B50446008848F6110200F005F82080BDE8104070470000484010F0010118BF82EA500000D1400810F0010118BF82EA500000D1400810F0010118BF82EA500000D1400810F0010118BF82EABC
S35100003F08500000D1400810F0010118BF82EA500000D1400810F0010118BF82EA500000D1400810F0010118BF82EA500000D1400810F0010118BF82EA500000D14008704718B44840002401E05200641C64
S35100003F5412F00041FAD0211C002C08DD10F0004318BF82EA400000D14000491EF6D1E04018BC7047F0B41C2519B912B10C20F0BC7047DFF82EC0002667460423874208D13C6834B11420704360444160F1
S35100003FA08260002503E01437761C5B1EF0DC2846F0BC7047C0467C5BFF1F000030B4DFF832204FF01C0C002415460421854208D12B6833B114204FF0000C604342F800C003E01435641C491EF0DC604627
S35100003FEC30BC7047C0467C5BFF1F000018B4DFF832404FF0FF334FF0000C0421844208D1226832B114200CFB00F1DFF81A00435804E014340CF1010C491EEFDC184618BC70477C5BFF1F805BFF1F0000EC
S351000040382DE9F801002718B1B0F1FF3F00D01AB90020BDE8F8017047DFF836C00024E0460425D8F8006026B914256C430CEB040704E0641C08F114086D1EF2DC2FB101243C607860B960FA603B6138462F
S35100004084BDE8F80170477C5BFF1F000030B4DFF854504FF01C0C0024042285421BD12B68CBB16B68B3F1FF3F15D049B9142004FB00F1DFF83400405888B14FF0000C0EE0142004FB00F2DFF82000805805
S351000040D0884208BF4FF0000C03E01435641C521EDDDC604630BC70477C5BFF1F885BFF1F70B5DFF840404FF0FF360425206898B16068B0F1FF3F0FD070B1401E60600BD1A06800B160602069E168884709
S3510000411CA16801B96060606800B9666014346D1EE6DCBDE8704070477C5BFF1F0022C0F8C010DFF81030C0F8B820C0F8BC201E2101221847D9D70100C0F8B810C0F8BC20002070470FB410B5044628B9FC
S351000041684FF48260BDE8104004B0704703A9002219F08AF938B9D4F8B81021B10846D4F8BC1018F0E9FDBDE8104004B07047000038B5054610B94FF482640EE0002200920022134619F024FA0446E86A91
S351000041B428B9D5F8B800D5F8BC1018F0B1FE2046BDE838407047000038B50546002025B94FF0FF30BDE838407047C0F11E041E2805D215F8011BFFF733FE641EF9D1BDE838407047F8B507460C2918BFEB
S35100004200012020D1DFF844500026032407EB860005EB860100F056F818B10220BDE8F8407047761CB6B2641EF0DC07F0F1FFDFF820200C2117F8010B02F8010B491EF9D107F0E8FF0020BDE8F84070479F
S3510000424CB00102006C0AFF1F2DE9F04182B0002700AE05460C469046022A38BF002026D307F0D0FFA8F1010102E07F1CBFB2241D8F4202DAA0888542F7DA2088B0806088F080A0883080E088708007F088
S35100004298BDFFB1883088F488431A6A1A718803EBD370091B514301EB600090FBF3F0201880B202B0BDE8F041704700000A880388934203D3B0F802C0944501D2012070474888834201D8844501D902209C
S351000042E4704700207047000078B581B0054600AE401E318080B200247280012818D8DFF83E1000A801EB8501FFF7DAFF002818BF02240ED107F07AFFDFF82620308802EB850122F825007088488007F073
S3510000433071FF00E00124204601B0BDE878407047C046B00102006C0AFF1F000078B589B000AC2046002503F0A7FEC8B9DFF83E2004AB0C2112F8010B03F8010B491EF9D1DFF82E0000AE0068B083204685
S3510000437CFFF726FFC6F81E00204603F089FE10B1022500E00125284609B0BDE878407047C0466C0AFF1FD053FF1F0000DFF8083001461020222218476D7E0000DFF808300146102022221847057D000055
S351000043C80160002219210171C1801921427101818272C272704700002DE9F84F88B081460078DFF8946401464800317018F01CFFDFF888340028186060D031780025002000295FD9CA0800F02B801C684C
S3510000441424F815006D1C1C68EDB224F815006D1C1C68EDB224F815006D1C1C68EDB224F815006D1C1C68EDB224F815006D1C1C68EDB224F815006D1C1C68EDB224F815006D1C1C68EDB224F815006D1C91
S35100004460EDB2521E7FF4D5AF11F0040F00F014801C6824F815006D1C1C68EDB224F815006D1C1C68EDB224F815006D1C1C68EDB224F815006D1CEDB211F0020F00F00A801C6824F815006D1C1C68EDB20B
S351000044AC24F815006D1CEDB211F0010F00F008801C6824F8150003E0DFF8C00315F07CFF31784FF4E270484318F0ACFEB06070B9DFF8AC03317815F06FFFDFF8A80315F06BFFFBF7C5FF08B0BDE8F84F89
S351000044F8704731780846800018F096FEDFF88C130028086000F0AF813178084618F08CFE05460020039001200290002000244FF00008069007462FE0B068D9F81410404451F8241000F5C87000F0DAFFC7
S35100004544D9F80800005D06990090D9F80C20D9F80430B0685118D9F810201B5D4044D21901F0B4FBB0680021404401F069FCB0680C3700EB0801DFF8180308F5E278006840F824100698641C143006903E
S3510000459031788C42CCDBDFF8FC02006803F066FD18B1DFF8F40215F00DFF4FF0000A2C4688E0002001904FF4E277B0680AFB07F94844832102F048F9A0B1DFF8D00215F0F9FEB0680AFB07F7C01905EBB7
S351000045DC0A0802F03FF82070B068C01902F03AF850B90120019007E0DFF8A80215F0E4FE012005EB0A082070B068484402F0A0F8A8B9B068484402F09BF880B9DFF8880215F0D2FE019808B100200290C5
S3510000462898F80000002846D0DFF8740215F0C6FE41E0DFF8700215F0C1FEB068484490F8631019B9832102F003F9A0BB4FF4E270DFF854B202270AFB00F8584615F0AEFEB068404402F000F820B1DFF8BB
S35100004674400215F0A5FE03E0DFF8380215F0A0FEB1687F1E08EB010292F8600028B192F8610020B192F8620008B9002FDFDC019858B1494491F8600028B191F8610020B191F8620008B9002002900AF1AC
S351000046C0010A641C317808468245FFF672AF00204FF00008002707900446DFF8E0A10490DFF8DC91059097E0B068011991F8600028B191F8610068B191F8620050B9484608F1410115F05EFEB06803214D
S3510000470C001902F075FE46E02878C8B1084601F0A1FFA8B9029898B9B068C8F30701001903F090FC30B1504615F046FEB068011904984874B0680221001902F059FE2AE0B068011991F8630008B1012017
S351000047580390084601F080FF0028B0680FD00119488810B1084602F045F8B0680121001902F040FEDFF8440115F020FE0DE0011991F8630048B1D1F8C8000AF007FFB16807980818002102F02DFEB0680A
S351000047A4C119059881F86300B068C11991F860000028084616D002F059F9B068C01901F04DFF38B1B0684FF4004100190A46002301F084FBB068002100191022012301F07DFB04E010210A46012301F0BB
S351000047F077FBB068011991F8620010B1084602F045F9079808F1010800F5E27007F5E277079004F5E2746D1C317808468045FFF663AF039890B1DFF8A00015F0CBFDDFF864003178006803F0E9FB18B12E
S3510000483CDFF88C0015F0C0FDDFF8880015F0BCFDB068317800F044F8B068317802F05EFBDFF87400317815F0AFFD08B0BDE8F84F7047DFF86800317815F0A6FD08B0BDE8F84F7047CC5BFF1FE05BFF1F66
S35100004888780AFF1FAD0AFF1FDD0AFF1FE45BFF1FF60AFF1F1D0BFF1F330BFF1F4B0BFF1F750BFF1FBB0BFF1FE80BFF1FF30BFF1F2E0CFF1F860CFF1F660CFF1FC90CFF1FEF0CFF1F170DFF1F470DFF1FCC
S351000048D4530DFF1F9E0DFF1F2DE9F04F83B083462220019118F0A2FC0290002800F09A8003F0D8FB002840F071800298FFF764FC0299D1F81E10814268D10298818B40F26C7081420AD940F634008142A8
S3510000492006D2DFF80C010160DFF8080115F04AFD02980C211030FFF75FFC014619B1DFF8F80015F03FFD019801264FF00009002867D94FF4E27009FB00F00BEB00040298D4F8C81000F06CF8F8B14FF412
S3510000496CE27009FB00F0029F00240BEB00080225D8F8C80006FA04F108420BD000F0B0FB824600F0B5FB009039883B894046524601F016F9BF1C641C6D1EE9DC11E000F0A3FB054600F09CFB074600F0A8
S351000049B8A5FB804600F09EFB0090204629463A46434601F0FFF8019809F10109401EC9F307090190B9D120E0DFF8580015F0EEFC01980024002818D900F080FB054600F079FB064600F082FB074600F082
S35100004A047BFB00900BEB0400294632463B4601F0DBF8019804F5E274401E0190E6D1029818F03EFB03B0BDE8F04F7047D053FF1FD00DFF1FF80DFF1F1C0EFF1F18B4002228B341F288334FF6FF7C11F05E
S35100004A5001040CD00488644509D084889C4206D80489644503D084899C4298BF0122801C11F002040DD0048864450AD084889C4207D80489644504D084899C4298BF42F0020201208A4218BF0020C0B2BF
S35100004A9C18BC70472DE9F843DFF8285200270022DFF824024FF0FF31134618F0ADF808B1002FF4D020BB18F0DDF9044610F0010016D04FF000084FF0000909E0A868484401F0EEFE08F1010809F5E279FE
S35100004AE8C8F3070828788045F2D3DFF8E401802118F032F914F0006004D00120264607B10020C7B207B1344314F0020018D04FF000084FF0000910E0A86800EB0901D1F8C80010EA147002D0084601F021
S35100004B34C5FE08F1010809F5E279C8F3070828788045EBD314F0040018D04FF000084FF0000910E0A86800EB0901D1F8C80010EA147002D0084602F03DF908F1010809F5E279C8F3070828788045EBD311
S35100004B8014F0080018D04FF000084FF0000910E0A86800EB0901D1F8C80010EA147002D0084602F0F1F908F1010809F5E279C8F3070828788045EBD314F0100018D04FF000084FF0000910E0A86800EBA2
S35100004BCC0901D1F8C80010EA147002D0084601F091FA08F1010809F5E279C8F3070828788045EBD314F0200018D04FF000084FF0000910E0A86800EB0901D1F8C80010EA147002D0084602F083FA08F173
S35100004C18010809F5E279C8F3070828788045EBD314F0400018D04FF000084FF0000910E0A86800EB0901D1F8C80010EA147002D0084602F04DFA08F1010809F5E279C8F3070828788045EBD314F0800017
S35100004C6418D04FF000084FF0000910E0A86800EB0901D1F8C80010EA147002D0084601F085FF08F1010809F5E279C8F3070828788045EBD314F4807016D04FF000084FF000090EE0A8684844D0F8C8100F
S35100004CB011EA147101D002F063F808F1010809F5E279C8F3070828788045EDD30024ECE6CC5BFF1FE85BFF1FE99BFF1F18B4DFF830104FF0000C8C687CB10978624600290BD9A318D3F8C830034218BF6D
S35100004CFC54F802C003D102F5E272491EF3D1604618BC7047CC5BFF1F78B4DFF84440A668E6B1D9B1D2B123784FF0000C002B15D906EB0C05D5F8C85005420BD006EB0C00B0F976000880A068604490F97E
S35100004D487400108078BC70470CF5E27C5B1EE9D178BC7047CC5BFF1F30B4DFF85E200024956845B339B312782346002A17D905EB030CDCF8C8C010EA0C0C0CD0E818012400F1B80C0B460A221CF8010B5D
S35100004D9403F8010B521EF9D103E003F5E273521EE7D154B90020087048708870C870087148718871C8710872487230BC7047CC5BFF1F000018B4DFF83C104FF0000C8C68A4B1DFF83420126882B109784B
S35100004DE0624600290CD9A318D3F8C83003421CBFA018B0F8E2C003D102F5E272491EF2D1604618BC7047C046CC5BFF1FE05BFF1F30B4DFF830C0DCF808208AB19CF800200023002A0CD9DCF80840E5182C
S35100004E2CD5F8C840044218BFA5F8E81003F5E273521EF2D130BC7047CC5BFF1F2DE9F843DFF858900746D9F80800002610B3002425464FF000080FE0D9F8080000EB0801D1F8C800384203D00846012443
S35100004E7801F0D6FC6D1C08F5E278EDB299F800108D42EBD30CB9012606E0DFF81800006803F0B8F800B901263046BDE8F8437047CC5BFF1FE45BFF1F2DE9F84FDFF8A4508246A868002849D042F20100A7
S35100004EC401EA000201F4005080B24FF00009002401F0010601F0080701F004080090C2F30F0B32E0A8680119D1F8C8001AEA000025D0002E084642F2010204D05946002300F0ECFF09E00099002300F0F9
S35100004F10E7FFDFF84C004FF4806117F021FF37B1A868082100190A46002300F0D9FFB8F1000F06D0A868042100190A46002300F0CFFF09F1010904F5E274C9F3070928788145C9D3BDE8F84F7047C046AF
S35100004F5CCC5BFF1FE85BFF1F2DE9F041DFF83E800646D8F808000024A0B1002500270DE0D8F80800C019D0F8C810314202D001F07FF804436D1C07F5E277EDB298F800008542EDD32046BDE8F0417047E3
S35100004FA8C046CC5BFF1F000030B4DFF8341100208D68002D00F091800C784FF4E271221A00FB01F3A04280F08880D10800F0438005EB030CDCF8C8C003F5E27340EA0C0005EB030CDCF8C8C003F5E27378
S35100004FF440EA0C0005EB030CDCF8C8C003F5E27340EA0C0005EB030CDCF8C8C003F5E27340EA0C0005EB030CDCF8C8C003F5E27340EA0C0005EB030CDCF8C8C003F5E27340EA0C0005EB030CDCF8C8C062
S3510000504003F5E27340EA0C0005EB030CDCF8C8C040EA0C0003F5E273491E7FF4BDAF12F0040F00F0208005EB030CDCF8C8C003F5E27340EA0C0005EB030CDCF8C8C003F5E27340EA0C0005EB030CDCF843
S3510000508CC8C003F5E27340EA0C0005EB030CDCF8C8C040EA0C0003F5E27312F0020F00F0108005EB030CDCF8C8C003F5E27340EA0C0005EB030CDCF8C8C040EA0C0003F5E27312F0010F00F0068005EB22
S351000050D8030CDCF8C8C040EA0C0030BC7047C046CC5BFF1F40F21320704700004FF496707047000040F26D30704700004FF42F70704700002DE9F84386B004A8002516F049FC0022DFF8D40001211346D1
S3510000512417F076FD0028F6D117F0A8FE10F00100F1D002AC204616F037FC04A8214600AA16F042FC0DF01CFB43F69821884215D9A5B9002000F0A6FC4FF28802C4F20F02022010604FF400601060111FDE
S351000051700860042010604FF4806010600125086000994FF47A70019A48431018B0F5FA6F22BF0121DFF86000017400240026DFF858904FF47A7745F2FC3819E00DF0EAFA404511D9009801997843081801
S351000051BC64280BD3D9F808008019012100F03CFE012000F081FC012000F062FC641C06F5E276E4B299F800008442E1D3DFF81000402117F0B7FD92E70C5CFF1FCC5BFF1FE99BFF1F4FF0000C00230C2283
S3510000520800F80C300CF1010CCCF3070C00F80C300CF1010CCCF3070C00F80C300CF1010CCCF3070C00F80C300CF1010CCCF3070C00F80C300CF1010CCCF3070C00F80C300CF1010CCCF3070C00F80C30C0
S351000052540CF1010CCCF3070C00F80C300CF1010CCCF3070C521ECDDC002280F8602080F8612080F8622080F8632080F8682080F8692080F86A204266C166704708B5034600200A464BB1D3F800C0BCF1C8
S351000052A0000F04D01AB1586899686023E047BDE80840704708B5034600200A464BB1D3F800C0BCF1000F04D01AB15868D9680823E047BDE8084070472DE9F041074600260024B846472598F80010304652
S351000052ECFEF7AAFD18F8011B81F0FF0106462046C9B2FEF7A1FD04466D1EEEDC97F847108E4204BF97F84810884206D13846391D00F08CF808B1012000E00020C0B2BDE8F04170474FF0000C0023022125
S35100005338C21892F84920FF2A18BF4FF0010C4AD15B1CC21892F84920FF2A18BF4FF0010C41D15B1CC21892F84920FF2A18BF4FF0010C38D15B1CC21892F84920FF2A18BF4FF0010C2FD15B1CC21892F849
S351000053844920FF2A18BF4FF0010C26D15B1CC21892F84920FF2A18BF4FF0010C1DD15B1CC21892F84920FF2A18BF4FF0010C14D15B1CC21892F84920FF2A18BF4FF0010C0BD15B1CC21892F84920FF2A5F
S351000053D018BF4FF0010C02D15B1C491EACDC6046704700002DE9F8430026804600273546122408EB050999F849103846FEF722FD99F8491081F0FF0107463046C9B2FEF719FD6D1C0646EDB2641EEADCE0
S3510000541C98F85B108F4203BF98F85C10884201200020C0B2BDE8F8437047000002784FF0000C1F2A15D8092A13D34278352A10D8012A0ED343884FF6FE72934209D8026808685040B0F1FF3F08BF4FF0FA
S35100005468010CCCF3070C6046704700002DE9F041011D80460027FFF7DBFFB8B100244646472531783846FEF7D9FC16F8011B81F0FF0107462046C9B2FEF7D0FC04466D1EEFDC88F8477088F848000127CD
S351000054B43846BDE8F041704710B5DFF830400121204617F00DFA204617F052F9DFF82040206818B9002012F093FA2060DFF80C0017F088F9BDE810407047C046585CFF1FF59AFF1F91B9DFF8781041619B
S35100005500DFF87410C160DFF874100161DFF870100160DFF870104160DFF86C1081607047012912D1DFF864104161DFF86410C160DFF860100161DFF860100160DFF844104160DFF8581081607047022900
S3510000554C11D1DFF850104161DFF84C10C160DFF84C100161DFF848100160DFF81C104160DFF840108160704781580000B95600009D570000555A000065590000655B0000CD58000005570000E9570000AC
S35100005598715A0000855B00001959000051570000355800008D5A0000A95B0000DFF86A204FF0000CD36873BB10F005032BD004291FD8DFE801F0030B1E131919916821EA000C6FEA40000CEA000C12E082
S351000055E4916841EA000C6FEA40000CEA000C0AE0916841EA000C4CEA400C04E0916821EA000C4CEA400CDFF8160081688CEA010101F00501C160C0F808C07047C046305CFF1F0000DFF8040080687047D1
S35100005630305CFF1FDFF8040080697047305CFF1F2DE9F047DFF86690074648460E4600244FF47A7A17F08EF8DFF85680D8F80000C8B1394612F096FAD8F8000012F060FAD8F8000012F0CAFA5146AAF12D
S3510000567C010A0446CAF30F0A09B10028F2D0D8F80000314612F0A2FA0546484617F0AEF814B10DB9012000E00020C0B2BDE8F0477047585CFF1FF59AFF1F000018B581B0002000AC2080022000A9FFF747
S351000056C8BBFFA0B1208819F02DF801460020C4F2D95019F0D5FB4FF20001C4F27F5119F07BFF19F053FB01B0BDE8184070470020C04301B0BDE818407047000018B581B0002000AC2080052000A9FFF7D3
S3510000571495FFA0B1208819F007F801460020C4F2D95019F0AFFB4FF20001C4F27F5119F055FF19F02DFB01B0BDE8184070470020C04301B0BDE818407047000018B581B0002000AC2080082000A9FFF741
S351000057606FFFA0B1208818F0E1FF01460020C4F2D95019F089FB4FF20001C4F27F5119F02FFF19F007FB01B0BDE8184070470020C04301B0BDE818407047000018B581B0002000AC2080012000A9FFF7B4
S351000057AC49FFA8B1208818F0BBFF014645F20000C4F2436019F062FB4FF20001C4F27F5119F008FF19F0E0FA01B0BDE8184070470020C04301B0BDE81840704718B581B0002000AC2080042000A9FFF78E
S351000057F823FFA8B1208818F095FF014645F20000C4F2436019F03CFB4FF20001C4F27F5119F0E2FE19F0BAFA01B0BDE8184070470020C04301B0BDE81840704718B581B0002000AC2080072000A9FFF7FE
S35100005844FDFEA8B1208818F06FFF014645F20000C4F2436019F016FB4FF20001C4F27F5119F0BCFE19F094FA01B0BDE8184070470020C04301B0BDE81840704718B581B0002000AC2080002000A9FFF777
S35100005890D7FEA8B1208818F049FF01464AF68030C4F2EA7019F0F0FA4FF20001C4F27F5119F096FE19F06EFA01B0BDE8184070470020C04301B0BDE81840704718B581B0002000AC2080032000A9FFF777
S351000058DCB1FEA8B1208818F023FF01464AF68030C4F2EA7019F0CAFA4FF20001C4F27F5119F070FE19F048FA01B0BDE8184070470020C04301B0BDE81840704718B581B0002000AC2080062000A9FFF7E6
S351000059288BFEA8B1208818F0FDFE01464AF68030C4F2EA7019F0A4FA4FF20001C4F27F5119F04AFE19F022FA01B0BDE8184070470020C04301B0BDE818407047DFF8AE100B6913F0010C11D100F0010299
S35100005974002A0DDD43F001024FF284030A610422C4F20F031A604FF480625A601A6014E0BCF1000F11DD10F001020ED10A69042322F001020A614FF28802C4F20F0213604FF4806342F8043913600B6980
S351000059C013F0040C11D100F00402002A0DDD43F0040008614FF284010220C4F20F0108604FF40060486008607047BCF1000F11DD10F004000ED1086920F0040008614FF288000221C4F20F0001604FF4A6
S35100005A0C006140F8041901607047305CFF1F000000284FF480521DBF4FF28801C4F20F010A604FF2840104BFC4F20F010A60DFF8081048707047C046305CFF1FDFF8040040787047305CFF1FDFF8140017
S35100005A58006A00F001000128CCBF01200020C0B27047C046305CFF1FDFF81400006A00F004000128CCBF01200020C0B27047C046305CFF1F00207047DFF80400006A7047305CFF1FDFF804100870704725
S35100005AA44DC3FF1FDFF818100028087006D14FF248004FF40071C4F20F0001607047C046B056FF1FDFF8040000787047B056FF1FDFF80410087070474CC3FF1FDFF80400007870474CC3FF1FDFF8142011
S35100005AF00121117030F0050102BFDFF80C10086010627047305CFF1F545CFF1FDFF8040000687047545CFF1FDFF8040000787047305CFF1FDFF8040000697047305CFF1F10B5DFF82C0004210068002444
S35100005B3C10F09EFE00B90424DFF818000221406810F078FC08B944F001042046BDE810407047C046F8C2FF1F10B5DFF8180001214068012410F066FC00B10024E0B2BDE810407047F8C2FF1F08B5DFF8FE
S35100005B881C000321406810F057FC00280CBF01200020C0B2BDE808407047C046F8C2FF1F08B5DFF81C000521006810F063FE00280CBF01200020C0B2BDE808407047C046F8C2FF1F70B5A0F89A20A0F892
S35100005BD49810A0F89C3004AD2D880446A0F89E5088B299B292B22B46002601F06DFE0246B4F89800B4F89A10C4F8A02001F07AFEC4F8A400B4F8B20010B1A4F8B00011E094F8620020B1B4F84A00A4F8AD
S35100005C20B00009E094F8600000281ABF4FF49670A4F8B000A4F8B060B4F89A00B4F89E10B4F89820B4F89C3001F040FE0546B4F89A00B4F898102A4601F04EFE064642F29330C4F27830294619F00EF90E
S35100005C6C314619F033FA0021054618F08FFC38BF0025284619F0A0F8A4F8B400B4F8B00018F04EFD294618F081FC04D2284619F093F8A4F8B000DFF82850B4F8B0102A880020002301F00CFE0246C4F849
S35100005CB8A8202988002001F01BFEC4F8AC00BDE870407047BC99FF1F70B5064614461D46002800F0AF80FFF78FFA06F170002146FEF76EFB002406F1840086F87C4086F87D4015F057FE0520C6F8EC00B3
S35100005D041920C6F8F0004FF08040C6F8F40000F58000C6F8F8000A20A6F8E8004FF6FF70A6F8EA006420A6F8E00086F88C40A6F88E40A6F89040A6F89240A6F89440A6F8B840A6F8BA40A6F8BC40A6F830
S35100005D50BE40A6F8C04086F8E640A6F8E44086F8D440A6F8D64086F8C24086F8C34086F8C440A6F8E240C6F88040C6F80041C6F8FC40C6F8D040C6F8D840C6F8DC40C6F8C85004A80078002186F8CC001C
S35100005D9C86F88C4186F88D41A6F8B2400020C6F80441C6F80801C6F80C11C6F81001C6F81411C6F81801C6F81C11C6F82001C6F82411C6F82801C6F82C11C6F83001C6F83411C6F83801C6F83C11C6F8EF
S35100005DE84001C6F84411C6F84801C6F84C11C6F85001C6F85411C6F85801C6F85C11C6F86001C6F86411C6F86801C6F86C11C6F87001C6F87411C6F87801C6F87C11C6F88001C6F88411C6F8880106F503
S35100005E34D470012116F054FDBDE8704070470000F8B504460F46FFF7EDFBD4F8C86006EA0005FFF7EDFB0640002D204605D002210A463B4600F03AF804E0002102223B4600F034F8002E204605DD082139
S35100005E800A463B4600F02CF804E0002108223B4600F026F894F8C200002894F8C5000FD10028D4F8C80005D00421FFF783FBBDE8F84070470021FFF77DFBBDE8F84070470028D4F8C80005D00321FFF7FA
S35100005ECC73FBBDE8F84070470121FFF76DFBBDE8F840704738B505464FF0000C12F001041BD012F4005406D011F4005414BF0124002480F8C54011F0010490F8C24005D05CB94FF0010C80F8C2C006E031
S35100005F18012C02BF002480F8C2404FF0010C12F0020411D011F0020490F8C34005D05CB94FF0010C80F8C3C006E0012C02BF002480F8C3404FF0010C12F0080419D011F0080490F88C4004F0010E09D0C0
S35100005F64BEF1000F02BF44F0010480F88C404FF0010C08E0BEF1000F1EBF04F0FE0480F88C404FF0010C12F0040419D011F0040490F88C4004F0020E09D0BEF1000F02BF44F0020480F88C404FF0010C24
S35100005FB008E0BEF1000F1EBF04F0FD0480F88C404FF0010C12F0100419D011F0100490F88C4004F0100E09D0BEF1000F02BF44F0100480F88C404FF0010C08E0BEF1000F1EBF04F0EF0480F88C404FF000
S35100005FFC010C12F0200419D011F0200490F88C4004F0200E09D0BEF1000F02BF44F0200480F88C404FF0010C08E0BEF1000F1EBF04F0DF0480F88C404FF0010C12F4004215D011F4004190F88C1001F0EA
S35100006048800207D06AB941F0800180F88C104FF0010C06E02AB101F07F0180F88C104FF0010C012B0AD1BCF1010F07D1284600F009F80146D5F8C8000DF0C4FBBDE838407047000090F8C21001290CBF30
S351000060940121002189B241F0000290F8C31001290CBF0221002189B20A4390F88C1011F0010014BF0820002080B2024311F0020014BF0420002080B2024311F0100014BF1020002080B2024311F02000D8
S351000060E014BF2020002080B2024311F0800014BF4FF40040002080B202431046704700002DE9F0478246DFF8F6039AF8CC1014F059F9DFF8EE0314F055F9DFF8EA0314F051F9DFF8E60314F04DF9DFF893
S3510000612CE2039AF8001014F047F9DFF8DA039AF8011014F041F9DFF8D203BAF8021014F03BF9DFF8CA039AF8041014F035F9DFF8C2039AF8051014F02FF9DFF8BA03BAF8061014F029F9DFF8B20314F01C
S3510000617825F9DFF8AE039AF8081014F01FF9DFF8A603BAF8091014F019F9DFF89E039AF80B1014F013F9DFF896039AF80C1014F00DF9DFF88E039AF80D1014F007F9DFF886039AF80E1014F001F9DFF8AB
S351000061C47E039AF80F1014F0FBF8DFF8760314F0F7F8DFF872039AF8101014F0F1F8504600F03CFADFF8622308B9DFF86223DFF862039AF8111014F0E3F8DFF85A039AF8121014F0DDF8DFF8520314F03E
S35100006210D9F8DFF84E03BAF8131014F0D3F8DFF84603BAF8151014F0CDF8DFF83E03BAF8171014F0C7F8DFF83603BAF8191014F0C1F8DFF82E03BAF81B1014F0BBF8DFF82603BAF81D1014F0B5F8DFF880
S3510000625C1E03BAF81F1014F0AFF8DFF81603BAF8211014F0A9F8DFF80E0314F0A5F8DFF80A039AF8231014F09FF8DFF802039AF8241014F099F8DFF8FA029AF8251014F093F8DFF8F2029AF8261014F007
S351000062A88DF8DFF8EA029AF8271014F087F8DFF8E2029AF8281014F081F8DFF8DA0214F07DF8DFF8D602BAF8291014F077F8DFF8CE02DAF82B1014F071F8DFF8C60214F06DF8DFF8C202BAF82F1014F01C
S351000062F467F8DFF8BA02BAF8311014F061F8DFF8B202BAF8331014F05BF8DFF8AA02BAF8351014F055F8DFF8A202BAF8371014F04FF8DFF89A02BAF8391014F049F8DFF89202BAF83B1014F043F8DFF884
S351000063408A02BAF83D1014F03DF8DFF88202BAF83F1014F037F8DFF87A02BAF8411014F031F8DFF87202BAF8431014F02BF8DFF86A02BAF8451014F025F8DFF86282404614F020F8DFF85A729AF847106A
S3510000638C384614F019F8DFF852629AF84810304614F012F89AF8600020B1DFF8420214F00BF803E0DFF83A0214F006F8DFF8360214F002F8DFF8320213F0FEFFDFF82E029AF8491013F0F8FFDFF8260253
S351000063D813F0F4FFDFF82202BAF84A1013F0EEFFDFF81A0213F0EAFFDAF8C800C0B206F08BFC0246DFF80A02BAF84C1013F0DEFFDFF8020213F0DAFFDFF8FE019AF84E1013F0D4FFDFF8F6019AF84F10F3
S3510000642413F0CEFFDFF8EE0113F0CAFFDFF8EA01BAF8501013F0C4FFDFF8E20113F0C0FFDFF8DE01BAF8521013F0BAFFDFF8D60113F0B6FFDFF8D2019AF8541013F0B0FF9AF85400DFF8C61110F00100DB
S3510000647008BFDFF8C211DFF8C20113F0A3FFDFF8BE0113F09FFFDFF8BA514FF0000906240AEB090292F855202846494613F092FF09F10109C9F30709641EF1DC404613F089FF9AF85B10384613F084FFDE
S351000064BC9AF85C10304613F07FFF9AF86100DFF87A2108B9DFF876219AF86200DFF8721108B9DFF87211DFF8720113F06DFFDFF86E019AF8CC1013F067FFBDE8F0477047C046370EFF1F810EFF1FA40E6B
S35100006508FF1FC30EFF1FE40EFF1FFD0EFF1F160FFF1F2D0FFF1F490FFF1F650FFF1F800FFF1F9E0FFF1FAB0FFF1FC20FFF1FD90FFF1FF30FFF1F0C10FF1F1D10FF1F2B10FF1F4D10FF1F6110FF1F691090
S35100006554FF1F6A10FF1F7D10FF1F9710FF1FB710FF1FD310FF1FEF10FF1F0B11FF1F2711FF1F4311FF1F5F11FF1F7B11FF1F9711FF1FAF11FF1FC911FF1FE111FF1FFA11FF1F1312FF1F2C12FF1F4112CB
S351000065A0FF1F5E12FF1F7212FF1F8B12FF1FB212FF1FC912FF1FE012FF1FF712FF1F0E13FF1F2513FF1F3C13FF1F6113FF1F8613FF1FAB13FF1FD013FF1FF513FF1F1A14FF1F2414FF1F3414FF1F4C14D8
S351000065ECFF1F6C14FF1F8E14FF1FAD14FF1FC214FF1FD814FF1FED14FF1F0315FF1F1715FF1F4015FF1F6F15FF1F8515FF1F9B15FF1FB915FF1FD015FF1FEA15FF1F0016FF1F1016FF1F2116FF1F2916B2
S35100006638FF1F3416FF1F3F16FF1F4E16FF1F6716FF1F6F16FF1F7716FF1F7D16FF1F8516FF1FA716FF1F0000407C012110B1FF2818BF0021C8B2704770B598B0054600AEC06E31460024FEF707FE002827
S3510000668405F5D47047D016F073F895F88C0000F0F70085F88C003046A5F89240FEF71AFE68B130462946492213F06EFB0124284685F86040FFF7D2FF08B185F8634000AE3046FEF733FE58B905F1490044
S351000066D0FF21142217F036F9002085F8610085F8620014E00124304685F86140FEF77AFE002804BF002085F8620008D012A8013005F14901142213F041FB85F8624005F5D47016F071F8012413E016F0A9
S3510000671C2BF8B5F89200642839BF401CA5F8920095F88C0040F0080028BF85F88C0005F5D47016F05BF8204618B0BDE87040704770B582B0054600AEC06E31460024FEF7ABFD002805F5D4702DD016F089
S3510000676805F895F88C0000F0F70085F88C00304601A9A5F89240FEF75BFEC0B100A8408818B100992868814211D00121002085F8631085F8600085F8620085F8611000ABDFF84A0019785A785B8813F094
S351000067B407FE05F5D47016F01DF8012413E015F0D7FFB5F89200642839BF401CA5F8920095F88C0040F0080028BF85F88C0005F5D47016F007F8204602B0BDE870407047C046EF16FF1F000010B5044614
S3510000680000F5D47015F0B6FF00206080206880F0FF3060602046FEF72DFE04F5D47015F0EBFFBDE81040704710B5044600F5D47015F0A0FF002060746080206880F0FF3060602046FEF716FE04F5D470BB
S3510000684C15F0D4FFBDE810407047000070B5054600F5D4700E46012415F086FF16F0010007D02846FEF732FD85F86000C0B200B9002416F0020013D02846FEF753FD85F861002846FEF7A8FD85F86200CB
S3510000689816F0800002D095F8610018B195F8620000B9002405F5D47015F0A2FF2046BDE870407047012070472DE9F04F89B0DFF80031824600F1130B05AA082133F8020B22F8020B491EF9D1DFF8E80011
S351000068E49AF8CC1013F06CFDDFF8E00013F068FD07204FF0000805AD5C46019005AADFF8D06002EB480229885288304613F058FD0BEB480221885288304613F051FD02A80AEBC8090090D9F8040104214B
S3510000693004AA03AB00F064F8DFF89C00049913F041FD0027DFF8946004E0304613F03AFD7F1CFFB202988742F7D3DFF88400039913F030FD02A80090D9F80801042104AA03AB00F045F8DFF86000049960
S3510000697C13F022FD002704E0304613F01DFD7F1CFFB202988742F7D3DFF84C00039913F013FD08F101080198A41CAD1C401EC8F307080190A6DCDFF834009AF8CC1013F003FD09B0BDE8F04F7047C04689
S351000069C8BC0102001817FF1F6E17FF1FC117FF1FCC17FF1FD117FF1FD317FF1FDA17FF1FE017FF1F012200E042430B46491E002BFADC104670470000F8B5074615460E461C4618F0C3F9286017F04AFEB1
S35100006A140146384618F070FC0021074617F0BAFD04D20020394618F067FC07460A203146FFF7DAFF17F036FE0146384618F022FA18F0BEF9206000F007F8311A06980160BDE8F8407047000001220A21B0
S35100006A6002E0B0FBF1F0521C0A28FAD21046704710B5044600F018F8204600F04FF8204600F060FCBDE810407047000010B5044690F8CC00B4F84C1006F05AF9204600F07DFCBDE8104070472DE9F84F67
S35100006AAC84B0DFF86830834600F1130700AA082133F8020B22F8020B491EF9D14FF0000800AE3D46072400A907EB480336F802AB01EB480149882A885B880BEBC809504600F0EEFEC9F80401024635F84B
S35100006AF8021B504600F0FCFE08F10108C9F80801C8F30708641EE0DC04B0BDE8F84F7047CC0102002DE9F04F87B0DFF86830824603CB01AA009203C203CB03C203CB03C29AF80D000AF1230B009D069001
S35100006B4400275E46052400990BEB070355F8049B01EB8701496832785B780AEBC708484600F0B2FEC8F83C01024616F8011B484600F0C0FE7F1CC8F84001FFB2641EE2DC07B0BDE8F04F7047DC01020089
S35100006B902DE9F84F84B00446DFF89E0194F8CC10DFF89A61DFF89A5113F00CFCDFF89601B4F8981013F006FCDFF88E01B4F89C1013F000FCDFF88601B4F89A1013F0FAFBDFF87E01B4F89E1013F0F4FB89
S35100006BDCDFF8760113F0F0FB0DF10409CDF800900DF10C0802AFD4F8A800042142463B46FFF700FFDFF856B10399584613F0DCFB4FF0000A06E0304613F0D6FB0AF1010ACAF3070A01988245F5D302996F
S35100006C28284613F0CBFBDFF82E0113F0C7FBCDF80090D4F8AC00042142463B46FFF7DCFE0399584613F0BAFB4FF0000A06E0304613F0B4FB0AF1010ACAF3070A01988245F5D30299284613F0A9FBDFF881
S35100006C74EE0013F0A5FBCDF80090D4F8A000042142463B46FFF7BAFE0399584613F098FB4FF0000A06E0304613F092FB0AF1010ACAF3070A01988245F5D30299284613F087FBDFF8AE0013F083FBCDF846
S35100006CC00090D4F8A400042142463B46FFF798FE0399584613F076FB002704E0304613F071FB7F1CFFB201988742F7D30299284613F068FBDFF87200B4F8B01013F062FBB4F8B20020B1DFF8660013F0BF
S35100006D0C5BFB03E0DFF85E0013F056FBDFF85A00B4F8B410642213F04FFBDFF8520094F8CC1013F049FB04B0BDE8F84F70473418FF1FD117FF1FD818FF1F8918FF1F9B18FF1FAD18FF1FBC18FF1FCB180A
S35100006D58FF1FCC17FF1FE118FF1FF418FF1F0119FF1F1319FF1F2F19FF1F4719FF1F4A19FF1F7D19FF1F000010B50446DFF84C00D4F8C81013F01AFBD4F8A40180470146DFF83C0013F012FBD4F89C01F5
S35100006DA480470146DFF8300013F00AFBD4F8A00180470146DFF8240013F002FBDFF82000D4F8C81013F0FCFABDE810407047C046D019FF1F211AFF1F3E1AFF1F541AFF1F761AFF1F2DE9F84F8AB0DFF846
S35100006DF00031824603CB04AA03C203CB03C203CB03C29AF80D000990DFF8E8009AF8CC100AF1230B13F0D6FADFF8DC0013F0D2FA4FF000085D46052404AA52F8281002EB8802DFF8C800526813F0C4FA3A
S35100006E3C0BEB0802DFF8BC002978527813F0BCFA01A80AEBC8090090D9F83C01042103AA02ABFFF7CFFDDFF8A000039913F0ACFA0027DFF8986004E0304613F0A5FA7F1CFFB201988742F7D3DFF884007E
S35100006E88029913F09BFA01A80090D9F84001042103AA02ABFFF7B0FDDFF86000039913F08DFA0027DFF8586004E0304613F086FA7F1CFFB201988742F7D3DFF84C00029913F07CFA08F101086D1CC8F333
S35100006ED40708641EA6DCDFF838009AF8CC1013F06FFA0AB0BDE8F84F7047C046F4010200C51AFF1F181BFF1F721BFF1FC117FF1FCC17FF1FD117FF1FD317FF1FDA17FF1F7F1BFF1F70B50025002264235E
S35100006F204FF6FF7E4FF00A0C002916D9861896F861404CB196F8624034B1B6F85240744518BF04FB0CF401D1F47A5C43AC4288BF254602F5E272491EE8D1284617F0E6FB01464FF07F5017F08FFF17F011
S35100006F6C2BFFDFF8141044F620620860904238BF0A60BDE870407047745CFF1FF8B584B00446B0F8E00017F0CBFB0146D4F8DC0017F074FF0021C4F2C82118F01BFB17F00BFF87B2DFF8F40094F8CC1019
S35100006FB813F004FADFF8EC00B4F8E21013F0FEF901A80090D4F8DC00042103AA02ABFFF713FDDFF8D400039913F0F0F90026DFF8CC5004E0284613F0E9F9761CF6B201988642F7D3DFF8B800029913F0B0
S35100007004DFF9DFF8B400B4F8E01013F0D9F9D4F8F40017F0D5FE0146DFF8A00013F0D0F9DFF89C00B4F8EA1013F0CAF9B4F809108F4298BF3946DFF88C0013F0C1F9DFF8880013F0BDF994F87C0078B18E
S35100007050DFF87C0013F0B6F9D4F8800017F0CAFA03460A46DFF86C00194613F0ABF903E0DFF8640013F0A6F9DFF86000B4F9761013F0A0F9204600F0AFF80146DFF8500013F098F9DFF84C0094F8CC10A0
S3510000709C13F092F904B0BDE8F8407047D01BFF1F261CFF1F441CFF1FD117FF1FDA17FF1F731CFF1F911CFF1FF61CFF1F181DFF1F451DFF1F5E1DFF1F671DFF1F8A1DFF1F951DFF1FB81DFF1FDE1DFF1F79
S351000070E810B50446DFF82400D4F8C81094F9742013F064F9DFF81800D4F8C810B4F9762013F05CF9BDE810407047C046301EFF1F5E1EFF1F2DE9F843417C8146002908BF002003D0C07A90FBF1F080B2B1
S3510000713485B24846002100F0B3F8804605FB00F10A20B1FBF0F086B299F80C0000FB06F14FF47A70B1FBF0F201F5FA7191FBF0F4DFF8640099F8CC1097B213F029F9DFF85C0099F80B1099F811202B46A0
