S0030000FC
S35100000000FFFB002061AA01001D8901001D8901001D8901001D8901001D89010000000000000000000000000000000000810400001D890100000000002B0500001D8901001D8901001D8901001D8901004D
S3510000004C1D8901001D8901001D8901001D8901001D8901001D8901001D8901001D8901001D8901001D8901001D8901001D8901001D8901001D8901001D8901001D8901001D8901001D8901001D890100FD
S351000000981D8901001D8901001D8901001D8901001D8901001D8901001D8901001D8901001D8901001D8901001D8901001D8901001D8901001D8901001D8901001D8901001D8901001D8901001D890100B1
S351000000E41D8901001D8901001D8901001D8901001D8901001D8901001D8901001D8901001D8901001D8901001D8901001D8901001D8901001D8901001D8901001D8901001D8901001D8901001D89010065
S351000001301D8901001D8901001D8901001D8901001D8901001D8901001D8901001D8901001D8901001D8901001D8901001D8901001D8901001D8901001D8901001D8901001D8901001D8901001D89010018
S3510000017C1D8901001D8901001D8901001D8901001D8901001D8901001D8901001D8901001D8901001D8901001D8901001D8901001D8901001D8901001D8901001D8901001D8901001D8901001D890100CC
S351000001C81D8901001D8901001D8901001D8901001D8901001D8901001D8901001D8901001D8901001D8901001D8901001D8901001D8901001D8901001D8901001D8901001D8901001D8901001D89010080
S351000002141D8901001D8901001D8901001D8901001D8901001D8901001D8901001D8901001D8901001D8901001D8901001D8901001D8901001D8901001D8901001D8901001D8901001D8901001D89010033
S351000002601D8901001D8901001D8901001D8901001D8901001D8901001D8901001D8901001D8901001D8901001D8901001D8901001D8901001D8901001D8901001D8901001D8901001D8901001D890100E7
S351000002AC1D8901001D8901001D8901001D8901001D8901001D8901001D8901001D8901001D8901001D8901001D8901001D8901001D8901001D8901001D8901001D8901001D8901001D8901001D8901009B
S351000002F81D8901001D8901001D8901001D8901001D8901001D8901001D8901001D8901001D8901001D8901001D8901001D8901001D8901001D8901001D8901001D8901001D8901001D8901001D8901004F
S351000003441D8901001D8901001D8901001D8901001D8901001D8901001D8901001D8901001D8901001D8901001D8901001D8901001D8901001D8901001D8901001D8901001D8901001D8901001D89010002
S351000003901D8901001D8901001D8901001D8901001D8901001D8901001D8901001D8901001D8901001D8901001D8901001D8901001D8901001D8901001D8901001D8901001D8901001D8901001D890100B6
S329000003DC1D8901001D8901001D8901001D8901001D8901001D8901001D8901001D8901001D89010018
S31500000400FFFFFFFFFFFFFFFFFFFFFFFFFEFFFFFFF7
S325000004200100000032C9AE51000000000000000000000000000000005C5C0200FFFFFFFF05
S3510000044001DF704701DFFFF7FEBFDFF8E802D0F8000072B6B0F8181051B9D0F82410D0F81C20D2F81C30994200F0028062B603DF62B6704703DF7047FFF7FEBF02DF704772B61EF0040F0CBFEFF3088126
S3510000048CEFF30981D1F8181011F8021C032940F008804DF804ED00F02CF85DF804EB00F026B8012940F00680DFF87C02D0F8000000F048B8022940F01A80DFF86C02D0F80000D0F81C10D1F8082042F054
S351000004D80102C1F808204DF804EDD1F80420D1F80030C2F80030C3F8042000F004F85DF804EB62B670472DE90740DFF83402D0F8041011F0805F40F00A80EFF31182A2F1100280F82220DFF81C12C0F899
S351000005240410BDE8078072B6EFF3098CDFF80C1291F80220EFF311832CE9FC4FDFF8F001D0F80000D0F81C30C3F814C072B6D0F82410D1F800208A4240F01680D1F808105FEA01017FF4F5AF81F311880E
S35100000570DFF8CC11DFF8CC2181F8022062B6AFF3038072B6D0F82010FFF7E5BFC0F82410C0F81C20B2F82430A0F81A30D2F814C0BCE8FC4F83F311888CF30988DFF88801DFF89411C0F8041062B670474C
S351000005BC72B64DF804EDDFF87031D3F80030B3F8181001F10101A3F81810DFF874014DF8040DEFF31182EFF30581D3F834002DE90700EFF30880C3F834004FEA0100D3F830200AB900F04BB8904200F2CF
S351000006084880D3F82C20811AC0F24380D3F838204FEAD1014FEA810152F8011009B900F038B8D1F8002042B1824200F00880D1F8101011EA010F7FF4F4AF00F02AB8D1F80C00D1F8042062B64DF8043D77
S3510000065490475DF8043B72B6BDE80700C3F834005DF8040BB3F81810491EA3F81810D3F81C20D2F8280010F4805F40F0098039B9D3F82410D1F80010914218BFFFF735FF62B65DF804FBD3F82820FFF71D
S351000006A0D6BF72B62DE9F100DFF88830D3F80030D3F834C00CF1100C5CF804EBDFF8900020F00100CCF818009CE8FF005DF804CBACF1040C2CE9FF00BDE8F0008CF3088862B670472DE9024090F8001080
S351000006EC11F0800F03BF41F0800180F8001080EA00004FF08000BDE80280EFF309807047EFF30880704780F308887047EFF30380704762B6704772B670477046704778467047EFF3148070479C39FF1F17
S3510000073800ED00E00000001020ED00E0FF00000000000008000000005706000008B5DFF82400C06C804738B101201BF061FF0146DFF814001AF0B6FE0020C043BDE808407047C0461737FF1F4C06FF1F88
S3510000078410B582B004468E469446009304982146019000207246634600F002FC02B0BDE81040704710B582B004468E469446009304982146019001207246634600F0F0FB02B0BDE81040704710B582B078
S351000007D004468E469446009304982146019002207246634600F0DEFB02B0BDE81040704710B582B004468E469446009304982146019000207246634600F0A2FC02B0BDE81040704710B582B004468E4676
S3510000081C9446009304982146019001207246634600F090FC02B0BDE81040704710B582B004468E469446009304982146019002207246634600F07EFC02B0BDE81040704708B5DDF808C08E46CDF800C019
S351000008680EF0780CCCF3C30EDFF810C001F007015CF82EC0E047BDE808407047BC06FF1F2DE9F843DFF8C68017461E464FF000094FF0FF35042856D109B9032553E0117890784840FF284DD15178D078D6
S351000008B44840FF2848D100240DE0D8F8101020468847D8F81C200121904710F0080018BF09F10109641CD8F80C0080478442ECDBB9F1010F2ED14FF00009344624E0D8F8101048468847D8F81C20012162
S35100000900904710F0080015D038782146F071B8780022707278783072F878B0723878307378787073D8F82C3048469847D8F83000804700256936693409F10109D8F80C0080478145D5DB02E0052500E021
S3510000094C05252846BDE8F84370471737FF1F0000DFF808100A78027048687047103AFF1F027E0023914208BF012321D0427E914208BF01231CD0827E914208BF012317D0C27E914208BF012312D0027F4A
S35100000998914208BF01230DD0427F914208BF012308D0827F914208BF012303D0C27F914208BF01231846704738B5054600240EF0E3FF854205DA28460EF0F0FF05F0CEFD04462046BDE8384070470000F4
S351000009E42DE9F041002580460F461646002817DBDFF83440E0688047804511DA2169404688471FB17F1E0CBF0125002010B10EB145F4005520B1DFF81020294692699047BDE8F0417047C0461737FF1F37
S35100000A3038B5054600280BDBDFF81C40E0688047854205DA216928468847A26980219047BDE838407047C0461737FF1F70B5DFF85C500446002826DB022824D2FF2A08BF2A5C02F00702FF2922F01802B6
S35100000A7C08BF295C00D0C90001F018011143C9B2FF2B21F0600208BF295C00D0590101F060011143285CCEB2864206D0DFF814202046926C314690472E55BDE870407047183AFF1F1737FF1F002100289E
S35100000AC806DB022804D218214143DFF808004158084670471C3AFF1F002806DB022804D218224243DFF80400815070471C3AFF1F38B50546FFF7E2FF044628460021FFF7EBFF204603F0AEFFBDE83840C3
S35100000B147047000008B5FFF7D3FF002808BF4FF0FF3001D003F0BEFFBDE8084070470000002801DB022801D300207047182200FB02F3DFF81420D050DFF81000C154DFF81000C018001D7047203AFF1F9C
S35100000B60243AFF1F1C3AFF1F08B50146006809790022FFF737FF0020BDE808407047000038B50546FF24FFF79DFF78B1DFF8241003F0D6FF50B9182005FB00F1DFF818004058854204BFDFF81400445C9C
S35100000BAC2046BDE838407047690B0000203AFF1F243AFF1F0FB4002801DB022802D3002004B07047182100FB01FCDFF8241001AB41F80C00DFF81C0000EB0C0203CB03C203CB03C2DFF810006044001D1D
S35100000BF804B07047203AFF1F243AFF1F1C3AFF1F10B50446002801DB022803D30020BDE81040704700F02EF8002808BF002005D01820DFF81010604308180830BDE810407047C0461C3AFF1F10B5017970
S35100000C44036801291EBF01210171C46804D1002101718268C168541A0179007C20B10120012908BF0020C1B218460122FFF7B8FE2046BDE81040704708B5FFF721FF30B1DFF8161003F05AFF08B90120B9
S35100000C9000E00020C0B2BDE808407047C046410C000000000FB430B406AA92F81EC0D37F92F8385043EA0C2492F8293003FB05FCC0F804C092F828306B4383600023037392F8212012F0200508D012F0F3
S35100000CDC80021EBF03700CEBDC7004EB600411D1012205B9002202734CB9D2B2002A0CBF01220022D3B201220270846802E00022FF23027001B10B70204630BC04B070470FB4F0B59FB00746002805DBAD
S35100000D28DFF8C000C0688047874205DB1FB00020BDE8F04004B070473846FFF79BFF00284BD03846FFF75CFF044608B9002643E01DAD6B4627AA612112F8010B03F8010B491EF9D125AB2A46082113F817
S35100000D74010B02F8010B491EF9D10CCD19A800210026FFF78DFF05463846FFF7C3FE002824DB19A90A7B217B8A4201BF1B9FA1688F421A9B06BF61688B42002616D119A9227809788A4208D1281A90FB71
S35100000DC0F3F103FB110101B90126F6B208E0E919081A90FBF3F103FB110101B90126F6B230461FB0BDE8F04004B070471737FF1F0FB410B59CB000231A936C460DF1880E4FF0650C1EF8013B04F8013B3B
S35100000E0CBCF1010CF8D121AB1B788DF86C3021AB01331B788DF86D3021AB02331B788DF86E309DF887308DF86F301B9B00F006F81CB0BDE8104004B0704700000FB42DE9F843A0B00DF1B0080DF1640960
S35100000E5807460E4615460028C0F29580DFF83001C0688047874280F28E80384631462A46FF23FF24FFF7EEFDFF2E00F07280384689F80040FFF734FE022E30D11EAC6B462DAA612112F8010B03F8010BFA
S35100000EA4491EF9D12BAB2246082113F8010B02F8010B491EF9D10CCC19A91AAC2046FFF7EFFE80461D9800900ECC3846FFF776FE0346DFF8C4204046002103F003FE044638462146FFF7FAFD74BBFF2097
S35100000EF089F800002AE0002446B1701E02BF98F8391098F83A0001FB00F405E098F8381098F83A0001FB00F498F8680000B914B989F8006012E038463146FFF703FE0346DFF86C202046002103F0D6FD7B
S35100000F3C044638462146FFF7CDFD0CB989F80060022E05D199F80000FF2818BF012200D1002299F800103846D2B2FFF73DFDFF2D0FD03BA9023111F815203BA9033111F8151041EA0221DFF814203846D3
S35100000F88526A89B2904720B0BDE8F84304B070471737FF1F410C0000690B00002DE9F8479BB082469146DDF89080259C38B1012805D0022818BF4FF0FF3040F0B18022B91BB00520BDE8F84770470846B1
S35100000FD44146224600F0B6FC88B1DFF85201C06C804738B101201BF01DFB0146DFF842011AF072FA1BB00420BDE8F847704700254746002C40F38D8038464946FFF7ACFC78B9DFF81A01C06C804700284F
S3510000102000F07C8001201BF0FFFA0146DFF80A011AF054FA72E0BAF1000F1DD0BAF1010003D0401E08BF02261DE0012625B998F8340010F0040006D1012D06D198F8340010F0080001D002260DE097F840
S3510000106C290010F0040018BF002606E097F82900002610F0040018BF01266B463A1D652112F8010B03F8010B491EF9D1387831468DF868007878FF228DF86900B8788DF86A00F8788DF86B001A9B2846B1
S351000010B8FFF79AFEDFF87200C06C804750B3BAF1000F16D0BAF101000AD0401E1AD101201BF0A6FA0146DFF85E001AF0FBF919E001201BF09DFA0146DFF84E001AF0F2F910E001201BF094FA0146DFF87F
S3510000110442001AF0E9F907E001201BF08BFA0146DFF832001AF0E0F969376D1C641E7FF473AF01201BB0BDE8F8477047C0461737FF1F6006FF1F6906FF1F7206FF1F7B06FF1F8406FF1F8D06FF1F0000C8
S351000011502DE9F04182B0DDF8208098F854C007460E4615461C461CF0040C09D0099CCDF80080019400F018F802B0BDE8F0417047DFF820001AF00CF90998CDF800800190384631462A46234600F0F0F887
S3510000119C02B0BDE8F04170479606FF1F2DE9F8479BB0074689461446249E259D4FF0FF3820B1012802D0022840F0C4801AB911B94FF00508BEE0484631462A4600F0B6FB78B1DFF87A01C06C804738B19A
S351000011E801201BF01DFA0146DFF86A011AF072F94FF00408A8E009F0070104F07F0040EAC119072001F008FF4FF0000A3446002D40F39A8094F8250000F00301A07B40EA012048450CBF0120002078B9F8
S35100001234DFF82201C06C8047002800F0818001201BF0F0F90146DFF816011AF045F977E0FF21FFB1781E03D0401E08BF022120E00121BAF1000F04D196F8340010F0040007D1BAF1010F06D196F8340055
S3510000128010F0080001D002210DE094F8290010F0040018BF002106E094F82900002110F0040018BF0121E846231D652213F8010B08F8010B521EF9D12078FF228DF8680060788DF86900A0788DF86A0004
S351000012CCE0788DF86B001A9B5046FFF78BFDDFF88A000221C0F804A00170DFF87200C06C804738B3AFB1781E0AD0401E1AD101201BF094F90146DFF866001AF0E9F819E001201BF08BF90146DFF85600E9
S351000013181AF0E0F810E001201BF082F90146DFF84A001AF0D7F807E001201BF079F90146DFF83A001AF0CEF84FF0060869340AF1010A6D1E7FF466AF40461BB0BDE8F84770471737FF1F6006FF1F9E0699
S35100001364FF1F103AFF1F7206FF1F7B06FF1F8406FF1F8D06FF1F00002DE9F8479BB00746249E259D4FF0FF3820B1012802D0022840F0C5802AB9052918BF4FF0050840F0BE8049B1012907D0022905D034
S351000013B0032903D0881FC0B201280FD8DFF86E01C06C804738B101201BF02EF90146DFF862011AF083F84FF00408A2E08020052918BF002002EB0009072001F019FE4FF0000A3446002D40F39480A07B3F
S351000013FC81450CBF0120002078B9DFF82601C06C8047002800F0818001201BF007F90146DFF816011AF05CF877E0FF21FFB1781E03D0401E08BF022120E00121BAF1000F04D196F8340010F0040007D1AC
S35100001448BAF1010F06D196F8340010F0080001D002210DE094F8290010F0040018BF002106E094F82900002110F0040018BF0121E846231D652213F8010B08F8010B521EF9D12078FF228DF868006078DB
S351000014948DF86900A0788DF86A00E0788DF86B001A9B5046FFF7A2FCDFF88A000221C0F804A00170DFF87200C06C804738B3AFB1781E0AD0401E1AD101201BF0ABF80146DFF866001AF000F819E00120EA
S351000014E01BF0A2F80146DFF85A0019F0F7FF10E001201BF099F80146DFF84A0019F0EEFF07E001201BF090F80146DFF83E0019F0E5FF4FF0060869340AF1010A6D1E7FF46CAF40461BB0BDE8F8477047BA
S3510000152CC0461737FF1F6006FF1F9E06FF1F103AFF1F7206FF1F7B06FF1F8406FF1F8D06FF1F00002DE9F0439BB0229C1D4688462946224600F0F2F920B11BB00420BDE8F0437047DFF8B4000026006C1E
S3510000157801278047211C2B46002C10DD93F8522012F0800218BF012609D193F8542012F0010218BF002702D16933491EEED10EB907B928B11BB04FF0FF30BDE8F043704708F03800C0F3C701012008F08F
S351000015C407074FF0000900FA01F86E46002C24DD95F8530018EA00001AD02B1D3246652113F8010B02F8010B491EF9D12878FF218DF8680068783A468DF86900A8788DF86A00E8788DF86B001A9B4846AE
S35100001610FFF7EEFB693509F10109641EDAD101201BB0BDE8F04370471737FF1F70B5049C1E460D463146224600F086F918B10420BDE87040704705F00700002506EB4006002C18DD2846FFF7B3F996F819
S3510000165C422096F8431041EA022188420CBF01200020C0B2012100B100212846C9B201F0C9FC69366D1C641EE6D10220BDE87040704700002DE9F8419BB0229D1E460F4631462A4600F052F988B1DFF8FD
S351000016A8E000C06C804738B101201AF0B9FF0146DFF8D00019F00EFF1BB00420BDE8F8417047072001F0A8FC0024002D52DD30463946FFF747F970B9DFF8A400C06C8047002843D001201AF09BFF014684
S351000016F4DFF8980019F0F0FE3AE00DF1600C6B4606F10C025D2112F8010B03F8010B491EF9D1334662460C2113F8010B02F8010B491EF9D19CE80E002046FFF7F5FA0121804600B100212046C9B201F033
S3510000174067FCDFF84400C06C804798B1B8F1000F08D001201AF068FF0146DFF8380019F0BDFE07E001201AF05FFF0146DFF8280019F0B4FE6936641C6D1EACD102201BB0BDE8F8417047C0461737FF1FD5
S3510000178C6006FF1F6906FF1FA706FF1FB106FF1F10B501F03F00840011F040000CBF01200020C0B212F052FE8442CCBF01200020C0B201F02FFC0220BDE810407047000070B5049C1D460E46294622468F
S351000017D800F0B6F818B10420BDE8704070473920704300F2395140F6354041434FF47A7091FBF0F083B2DFF8B810002C54DDE00800F0278085F82D600A6D938185F896600A6DD235938185F82D600A6D0D
S35100001824938185F896600A6DD235938185F82D600A6D938185F896600A6DD235938185F82D600A6D938185F896600A6DD2359381401E7FF4D9AF14F0040F00F0128085F82D600A6D938185F896600A6DB4
S35100001870D235938185F82D600A6D938185F896600A6DD235938114F0020F00F0098085F82D600A6D938185F896600A6DD235938114F0010F00F0048085F82D600A6D93810120BDE8704070471737FF1F93
S351000018BC38B5049C0D461946224600F03FF818B10420BDE83840704715F0400018D0482D18BF4FF0FF301DD10025002C0CDD2846FFF7C6F9012100B100212846C9B201F089FB6D1C641EF2D10220BDE832
S351000019083840704705F03F00072814BF01200020C0B201F081FB0220BDE838407047000008B501201AF07CFE0146DFF8100019F0D1FD0020C043BDE808407047FC06FF1F01EB000C0123101C002A0ADD6B
S351000019549CF80F1011F0800108BF002303D00CF1690C401EF4D11846704700002DE9F84F8CB099464B1E009101924FF0FF3A042B00F23E81137813B94FF0030A38E1052B0AD201201AF046FE0146DFF8F3
S351000019A06E0219F09BFD4FF0050A2BE192F80380012902D1B8F1010F07D0169A4946FFF7C3FF10B14FF0040A1CE10198002600780024051F01984F4640780390019890F802B008EB050002908BE000200E
S351000019EC069007F10B00079007F12800089007F13200099007F141000A9007F156000B90009806A951F8200010B94FF0050A70E00178029888420ADD01201AF0FFFD0146DFF8E20119F054FD4FF0050A97
S35100001A3861E00098012853D1B8F10C0F50D2B8F1040F19D3039858450AD001201AF0E8FD0146DFF8BA0119F03DFD4FF0050A4AE0B97B0398814204DB594502DC0120A04006434FF0000A3EE0B8F1010F9B
S35100001A8425D1032D0ADA01201AF0CCFD0146DFF8860119F021FD4FF0050A2EE00199FA79091D0B780120934218BF002004D14B783A7A934218BF0020002808BF4FF0050A1BD00120A04006434FF0000A74
S35100001AD015E001201AF0A8FD0146DFF8420119F0FDFC4FF0050A0AE0B97B0398814204DB594502DC0120A04006434FF0000A6937641C169804908442FFF66FAF00200590049800244F464FF0010B00282C
S35100001B1C6BDD0BFA04F030425FD0059806A9069009F10B00079009F12800089009F13200099009F141000A9009F156000B90009851F8200008EB00030198011D002D3DDDE80800F01B800A781A704A789A
S35100001B68891C5A700A789B1C1A704A78891C5A700A789B1C1A704A78891C5A700A789B1C1A704A78891C5A709B1C401E7FF4E5AF15F0040F00F00C800A781A704A78891C5A700A789B1C1A704A78891CC9
S35100001BB45A709B1C15F0020F00F006800A781A704A78891C5A709B1C15F0010F00F002800A781A70DFF846302046DB6A39460022984704986937641C401E09F16909049093D12EB1DFF82600006B804747
S35100001C004FF0000A50460CB0BDE8F84F70471107FF1F2507FF1F5E07FF1FA207FF1FDD07FF1F1737FF1F00002DE9F04F87B0054610989246109007208B4699464FF0FF3401F0EEF99AF8000008B903248A
S35100001C4C95E0032809D001201AF0E8FC0146DFF8280119F03DFC052489E0109A28464946FFF76CFE08B1042481E010980026002870DD09F10B00029009F128000390002709F13200049009F14100059014
S35100001C9809F1560001970690BBF1060F28BF052453D201A850F82B80B8F1000F08BF05244BD04FF6FF7100A8018000AD444605E014F8011B284602F04DFE7F1C98F800008742F5DB00A80388002203F44A
S35100001CE47F4001129AF80100814205D19AF80200D9B2814208BF0122D5B2012105B100213046C9B201F082F9DFF878000024C06C8047E0B101201AF085FC014606F1410019F0ECFB01201AF07DFC01460A
S35100001D30DFF8580019F0D2FB002D14BFDFF85050DFF8505001201AF06FFC0146284619F0C5FB1098761C401E09F1690910908ED1DFF82400C06C804738B101201AF05CFC0146DFF8240019F0B1FB2046A0
S35100001D7C07B0BDE8F04F70471107FF1F1737FF1F1408FF1F1B08FF1F2308FF1F2B08FF1F2DE9F84787B00546109888461090072017461E464FF0FF3492F8009001F032F9B9F1000F08BF032457D0B9F117
S35100001DC8030F0CD0B9F1040F09D001201AF028FC0146DFF8A60019F07DFB052447E0109A28463146FFF7ACFD08B104243FE000200090109800250DF1040A002837DD0098B8F1060F019006F10B000290F3
S35100001E1406F12800039006F13200049006F14100059006F15600069028BF05241BD25AF8281009B9052416E07B78BA78CC18C95C00208A4206D1B9F1030F1DBFFA7861788A420120C0B2012100B10021CE
S35100001E602846C9B201F0D4F80024109869366D1C401E1090C7D1204607B0BDE8F8477047C0461107FF1F00002DE9F843089D81461E460720DFF8D4418846174601F0C0F8484631462A46FFF74FFD18B184
S35100001EAC0420BDE8F8437047B8F1000F2BD1387818B90320BDE8F843704703280AD001201AF0ACFB0146204619F002FB0520BDE8F84370470024002D11DD7978F079814203BFB978307A8142012108BF4F
S35100001EF800212046C9B201F087F86936641C6D1EEDD10020BDE8F8437047B8F1010F20D1387818B90320BDE8F843704702280AD001201AF07DFB0146204619F0D3FA0520BDE8F84370470024002D06DD08
S35100001F447978204601F0A8F8641C6D1EF8D10020BDE8F8437047B8F1020F25D1387818B90320BDE8F843704702280AD001201AF059FB0146204619F0AFFA0520BDE8F84370470024002D0BDD7878012104
S35100001F90042808BF00212046C9B201F039F8641C6D1EF3D10020BDE8F8437047B8F1030F25D1387818B90320BDE8F843704702280AD001201AF030FB0146204619F086FA0520BDE8F84370470024002DD9
S35100001FDC0BDD78780121072808BF00212046C9B201F010F8641C6D1EF3D10020BDE8F8437047B8F1040F25D1387818B90320BDE8F843704702280AD001201AF007FB0146204619F05DFA0520BDE8F84312
S3510000202870470024002D0BDD78780121032808BF00212046C9B200F0E7FF641C6D1EF3D10020BDE8F843704701201AF0E9FA0146DFF8140019F03EFA4FF0FF30BDE8F8437047C0461107FF1F2E08FF1FFE
S351000020742DE9F84FDFF85A43DFF85A7316461D46002940D1117809B903269EE1062904BF1878814208D001201AF0C4FA0146204619F01AFA052690E14FF0FF31411801245E1C002907DD3078FF2818BF33
S351000020C0002402D1761C491EF7D14CB901201AF0ABFA0146DFF8060319F000FA052676E101265C1C501C04E010F8011B04F8011B761C19788E42F7DB0020FB6A2946024600269847386B804761E101298E
S3510000210C40F09180117809B903265AE1072902BF1878401C814208D001201AF07FFA0146204619F0D5F905264BE190794FF0010800F00F0900F0F0004FEA201A07204FF0FF3400F067FF29784FF0FF30F0
S351000021580818721C05F1010B00280CDD9BF8003011788B4218BF4FF0000804D1521C0BF1010B401EF2D1B8F1000F04BF0024022637D0BAF1000F04BF0124022631D0AAF10100022810D81AF0010002D0AD
S351000021A4F96B002088471AF0020002D0F96B01208847386B8047012402261CE0AAF10400022816D8AAF10300012410F0010004D0B96B0020884700B90024AAF1030010F0020004D0B96B0120884700B931
S351000021F00024022601E04FF0FF36022E40F0E780B9F1000F06D1012004B10020C0B200F01DFFDCE0B9F1010F08D1002C08BF002600F0D580002000F011FFD0E04FF0FF36CDE0022919D1107808B903260C
S3510000223CC7E0022808D001201AF0F0F90146204619F046F90526BCE051782A4601F03C00801001F00301022600F004FFB1E0032947D1117809B90326ABE00C2905D11878401E4000801C814208D001206C
S351000022881AF0CEF90146204619F024F905269AE007200124D77A00F0BFFE28784FF0FF3282180121731C05F10109002A10DD701899F80050407993F800802840804518BF002405D109F10109491C5B1CF4
S351000022D4521EEED1002004B101200226022E40F074803FB900280CBF01200020C0B200F0ABFE6AE04FF0FF3667E004295BD1107808B9032661E0092808D001201AF08AF90146204619F0E0F8052656E029
S3510000232018784FF0FF31411892F806800124521C03F1010900290BDD99F800301078834218BF002404D1521C09F10109491EF3D10CB905263BE0A8F10100022888BF052635D84FF00009AA464FF0010B15
S3510000236C02240BFA09F018EA000015D0F96B48468847F07905F10801E871F07905F10A02C0436872307A0870307A5146C0431070FB6A48460022984769350AF1690A09F10109641EDDDC386B8047002695
S351000023B809E001201AF034F90146DFF81E0019F089F84FF0FF363046BDE8F84F70471107FF1F1737FF1F4608FF1F2E08FF1F00002DE9F84FA0B01A904FF0FF301C902A9D2B9C8846072016461F4600F038
S351000024040DFE404629462246FFF79CFA10B104201C902AE1F0B2012800F21F81387810B903201C9021E1022801D33F280AD901201AF0F8F80146DFF83E0219F04DF805201C9012E100F03F00801E97F820
S3510000245001801B9008F01F001F2808BFFF2000D0C00008F0E0014B1C002207F1020C012E02BF4FEAC800431C0020022CC4BF05201C9000F3F4804FF0000E002C24DD00211C91211C2E461EAF4FF001096A
S3510000249C4FF0FF0B002C19DD96F854A096F80E801AF0040A1EBF96F825A00AF0030A48EA0A288045DCBF09FA0EF842EA0802693607F801BB0EF1010E491EE5D11B98002800F084801A9890B31B982E4623
S351000024E81EAF03EBC0088022211C002C40F3788096F85490B07B19F004091EBF96F8259009F0030940EA0920984215DB404513DAA0EB030A4FEAAA090AEB59794FEAE9090AF007001CF8099042FA00F032
S3510000253410EA090014BF01200020387069367F1C491ED7D14EE07F2BC4BF05201C9049DC1B982E461EAF03EBC0084FF080091D94002C3FDD002004223118097E994215DB414513DAA1EB030A4FEAAA0BB6
S351000025800AF007010AEB5B7A4FEAEA0A1CF80AA049FA01F111EA0A0114BF012100213970401C3118097E994215DB414513DAA1EB030A4FEAAA0B0AF007010AEB5B7A4FEAEA0A1CF80AA049FA01F111EA80
S351000025CC0A0114BF012100213970401C521EC7DC1D9869367F1C401E1D90BFD14FF000081EAE2F46002C3CDD3178012910D1B8F1000F04D195F8340010F0040007D1B8F1010F05D195F8340010F00800F7
S3510000261800D00221E9463B1D652213F8010B09F8010B521EF9D13878FF228DF87C0078788DF87D00B8788DF87E00F8788DF87F001F9B4046FEF7D0FB761C693708F10108641ECBD107E0012019F0E2FF62
S351000026640146DFF8160018F037FF1C9820B0BDE8F84F7047C0461107FF1F2E08FF1F000010B582B004468E4694460093049821460190002072466346FFF7A4FE02B0BDE81040704710B582B004468E4659
S351000026B094460093049821460190012072466346FFF792FE02B0BDE8104070472DE9F84F8CB099464B1E009101924FF0FF3A042B00F25281137813B94FF0030A4CE1062B0AD2012019F098FF0146DFF844
S351000026FC960218F0EDFE4FF0050A3FE192F80480012902D1B8F1010F07D0169A4946FFF715F910B14FF0040A30E10198002600780024451F01984F46C278407802F0300140EA01100390019802F0030137
S35100002748807840EA012B08EB0500029097E00020069007F10B00079007F12800089007F13200099007F141000A9007F156000B90009806A951F8200010B94FF0050A7CE00178029888420ADD012019F058
S3510000279449FF0146DFF8FA0118F09EFE4FF0050A6DE00098012859D1B8F10C0F56D2B8F1040F1FD3039858450AD0012019F032FF0146DFF8D20118F087FE4FF0050A56E097F8250000F00301B87B40EA5A
S351000027E001210398814204DB594502DC0120A04006434FF0000A44E0B8F1010F25D1032D0ADA012019F010FF0146DFF8920118F065FE4FF0050A34E00199FA79491D0B780120934218BF002004D14B7820
S3510000282C3A7A934218BF0020002808BF4FF0050A21D00120A04006434FF0000A1BE0012019F0ECFE0146DFF84E0118F041FE4FF0050A10E097F8250000F00301B87B40EA01210398814204DB594502DC38
S351000028780120A04006434FF0000A6937641C169804908442FFF663AF00200590049800244F464FF0010B00286BDD0BFA04F030425FD0059806A9069009F10B00079009F12800089009F13200099009F1F6
S351000028C441000A9009F156000B90009851F8200008EB00030198411D002D3DDDE80800F01B800A781A704A78891C5A700A789B1C1A704A78891C5A700A789B1C1A704A78891C5A700A789B1C1A704A78A2
S35100002910891C5A709B1C401E7FF4E5AF15F0040F00F00C800A781A704A78891C5A700A789B1C1A704A78891C5A709B1C15F0020F00F006800A781A704A78891C5A709B1C15F0010F00F002800A781A705B
S3510000295CDFF846302046DB6A39460022984704986937641C401E09F16909049093D12EB1DFF82600006B80474FF0000A50460CB0BDE8F84F70471107FF1F2507FF1F5E07FF1FA207FF1FDD07FF1F1737CD
S351000029A8FF1F00000220704738B50546002025B94FF6FF70BDE838407047C0F16704672805D215F8011B01F099FF641EF9D1BDE83840704708B5DFF8140040688047DFF810100860BDE808407047C046B4
S351000029F41737FF1F4C3AFF1F08B5DFF81400DFF81410006889688847BDE808407047C0464C3AFF1F1737FF1F0023022901BF027A90F871108A42C17902BF90F87000814201231846704700002DE9F84F51
S35100002A40009100249B4681460A995846DFF8E07092464FF0000825460126FFF7DFFFC0B112E0396940468847FA6901218146904710F0400006D1404644EA0904FEF7FEF80543002608F10108F868804723
S35100002A8C8045E8DB14E0F8688047814510DA39694846884704464846FEF7EAF80546FA6920460121904710F0400008BF0026F6B206B91CB90720BDE8F84F7047FA6920460121012690470446BAF1000FCA
S35100002AD805D010F4404008BF00268AF800609BF8540010F0010009D0386C804730B19BF8540010F0020008BF022012D014F0880018BF02200DD11DB10420BDE8F84F70470098002814BF01200220204293
S35100002B2414BF00200120BDE8F84F70471737FF1F30B585B0C4B224F00800042840D8DFE800F0030F27331B1B012019F06BFD0146DFF82C0118F0C0FC05B0BDE830407047012019F05FFD0146DFF8180114
S35100002B7018F0B4FC05B0BDE830407047012019F053FD0146DFF8040118F0A8FC05B0BDE830407047012019F047FD0146DFF8F00018F09CFC05B0BDE830407047012019F03BFD0146DFF8DC0018F090FC83
S35100002BBC05B0BDE83040704714F080002AD0012004F03F0519F02AFD0146DFF8C00018F07FFC012019F022FD0A24014695FBF4F0303018F087FC012019F018FD014695FBF4F004FB1050303018F07CFC88
S35100002C08012019F00DFD0146DFF8880018F062FC05B0BDE83040704700ADDFF87C302A46112113F8010B02F8010B491EF9D1012019F0F6FC0146DFF8640018F04BFC012019F0EEFC014604F0F00000115C
S35100002C54285618F053FC012019F0E4FC014604F00F00285618F04AFC012019F0DBFC0146DFF8240018F030FC05B0BDE8304070475D08FF1F6408FF1F6B08FF1F7208FF1F7908FF1F8008FF1F8308FF1F1D
S35100002CA03A1102008608FF1F08B59446009300226346FFF7C3FEBDE80840704710B5D0F890010C4601F0A4FFDFF81400C06C804710B12046FFF72EFFBDE810407047C0461737FF1FDFF80800012141729B
S35100002CEC7047C0464C3AFF1FDFF80800002141727047C0464C3AFF1FDFF80400407A70474C3AFF1F2DE9F84F84B0DFF8B251814600200190E86C8A46804738B1012019F07DFC0146DFF89A0118F0D2FB49
S35100002D3800200027002402900DF10C0B9EE0DFF88A01D1F85C22017A10190818C67B029800218BF80000D9F8003093F860020090D3F85C32384603AAFFF764FE8046022808D0032806D0FF2138460A46BC
S35100002D840023FDF769FE1DE0FF2138460A464346FDF762FE9BF80000A0B9D9F80000D0F85C1291F8330010F004001CBF0120019008D1081990F8330010F0080002D03846FDF734FE16F07F000CD1E86C8E
S35100002DD0804700283FD0012019F026FC0146DFF8F60018F07BFB36E0E8688047874232DA2969384688471AEA000008D1D9F80010D1F85C0291F86012FFF708FE18B3300400F4FE0020F00F01F80000F01F
S35100002E1C080008F00702084342EA0006FFF76CFF58B9E86C804780B1012019F0F7FB0146DFF89A0018F04CFB07E0B9F1000F04D0D9F800003146FFF733FFD9F80010D1F85C0291F86012FFF7DBFD58B13F
S35100002E68E86C804788B1012019F0DAFB0146DFF8660018F02FFB08E07F1C6934D9F8001091F860028742FFF65AAF019848B1002403E02046FDF7C8FD641CE86880478442F7DBE86C804738B1012019F047
S35100002EB4B9FB0146DFF8260018F00EFB04B0BDE8F84F7047C0461737FF1F8908FF1F4C3AFF1F9808FF1F9F08FF1FA608FF1FAD08FF1F000018B484B000240DF1000C8CF800408CF801108CF802208CF8D4
S35100002F00033000280DDB02280BD2DFF81C1000AB01EB0012102113F8010B02F8010B491EF9D104B018BC7047563AFF1F10B584B004464FF0010E00A880F800E04FF0000E80F801E080F802E080F803E031
S35100002F4C01714271837106A90978DDF81CC0C1719CF80020082A08D302AA08211CF8010B02F8010B491EF9D103E002A861461BF00FFD002C0DDB022C0BD2DFF81E0000AB00EB0412102113F8010B02F8CD
S35100002F98010B491EF9D104B0BDE810407047563AFF1F000084B04FF0000C00AA072382F800C0537082F802C082F803C000290DDB02290BD2DFF8282000AB02EB011C10221CF8011B03F8011B521EF9D133
S35100002FE400AB102213F8011B00F8011B521EF9D104B07047563AFF1F08B5002207211346FFF770FFBDE808407047000008B500221346FFF767FFBDE80840704770B506460025022428463146FFF7F0FF09
S351000030306D1C641EF8DCBDE87040704708B50023FFF752FFBDE808407047000010B504460720FFF7E5FF0C2304B10A23002021460222DBB2FFF740FFBDE810407047000070B582B0064607200D461446E7
S3510000307CFFF7D0FF0A200090002031462A460C230194FFF74DFF02B0BDE870407047000008B50B4607210022DBB2FFF71FFFBDE8084070472DE9F04F85B0804601F07000C0F30710DFF82C120DF1040A7F
S351000030C800900872FFF712FEFFF784FC4FF00009F3E001A84946FFF765FF4846FFF78AFF9AF8000000286ED09AF8084003AD012C0FDCDFF8F801C06C8047002800F0DB80012019F08DFA0146DFF8E401F2
S3510000311418F0E2F9D1E09AF8052012039AF8070002F440539AF804208001120400F47C619AF8060002F4702242F0404200F03F001A43104341EA0007D8F890013946002601F05CFD40F2000BC9F6FF7B1E
S3510000316023E015F8010B2EB9401EC00080B2FF2888BFFF200002761C80B2A642BEBF15F8011B0843761C4FF00051A642B8BF002182B207EA0B0040F00040084342EA0007D8F89001394601F033FDA642F5
S351000031ACD9DBDFF84401C06C8047002800F08180012019F033FA0146DFF8340118F088F977E09AF8020050B9692009FB00F1D8F85C22009880180818C07B8AF802009AF8020010F07F0064D09AF8010019
S351000031F8072811D19AF8030070B9DFF8F000C06C8047002857D0012019F00AFA0146DFF8E80018F05FF94EE06920D8F85C2209FB00F0101890F8290010F0400022D098F8603248460021FFF733FDD8F84E
S351000032445C1291F8342012F0010102D0A0B1042812D09AF80200401E000400F4FE0112F0800021F0FF0014BF40F0810140F08001D8F8900101F0CAFC9AF80200000400F4FE019AF8030000281FBF21F0B8
S35100003290FF0100F03F0040F0800001430CD19AF8010000F007024FEAC90021F00F0100F00800084342EA00014046FFF7FFFC09F1010998F860028145FFF607AFDFF82400C06C804738B1012019F0A6F94F
S351000032DC0146DFF8240018F0FBF805B0BDE8F04F7047C0464C3AFF1F1737FF1FB008FF1FB708FF1FA608FF1FAD08FF1F2DE9F84F00F07000C0F307100024154601EB000ADFF85EB0DFF85E80DFF85E6080
S35100003328DFF85A70002A21DD9AF80F9019F080000AD0F86C8047A8B1012019F071F90146404618F0C7F80DE0F06C0124804748B1B9F1000F06DD204619F062F90146584618F0B8F80AF1690A6D1EDDD172
S351000033742046BDE8F84F7047C046C408FF1FBE08FF1F1737FF1F000070B586B00B4693F85450064600787478B17815F0010507D0251FEDB2022D03D804F00F040C34E4B2DFF87050009255F82450F21C66
S351000033C0A8470546B0F1FF3F28D1DFF86000C06C804718B301AEDFF858303246112113F8010B02F8010B491EF9D1012019F01CF90146DFF8400018F071F8012019F014F9014604F00F00305618F07AF81F
S3510000340C012019F00BF90146DFF8200018F060F8284606B0BDE870407047C0460006FF1F1737FF1F4B110200CA08FF1FD008FF1FF8B5074607200E46FFF7ECFD00252BE0D7F85C2228460121FFF728FC1D
S3510000345804462846FDF790FBFF2813D0042C02D0E1B201290ED808B9012406E0012808BF002402D0022808BF04242846E1B2FFF7C3FD03E028462146FFF7BEFDD7F85C0297F86012FFF7BEFA20B96D1C13
S351000034A497F860329D42CFDB38463146FFF7FEFDFFF716FCBDE8F8407047000078B581B0064607200D46FFF7A9FD00A8FDF744FA044600280CDBD6F85C2296F860320121FFF7E0FB00AA01461278204677
S351000034F0FFF7A4FD30462946FFF7DAFD01B0BDE87840704770B50646DFF818000D46144617F046FF002030607560B4600020BDE870407047D408FF1F2DE9F041026807460A6001600B680E46002B07BFE3
S3510000353C0022C1F890211A1DC1F890211CBF01F1CC02C3F8C82042680AB9002405E08368DA4312EA430408BF0124826822438260081D7968224601F047FB05466400B86879682043B86006F1CC002246FD
S3510000358801F03CFB80466400B86879682043B86006F5CA70224601F031FB35B9B8F1000F18BF4046BDE8F04170472846BDE8F0417047000070B50E46002405680AE0D5F8540230B105F5CA70314601F04A
S351000035D41DFB00B104462D68002DF2D12046BDE87040704708B5D0F8681301B18847BDE80840704708B5D0F86C1301B18847BDE8084070472DE9F0418046002416461F4640F8044B01F0E6FA054608F1BF
S35100003620CC003146C8F8C84001F0DEFA064608F5CA703946C8F8904101F0D6FA0699002DC8F8581204D126B13046BDE8F04170472846BDE8F041704738B5DDF810C00546CDF800C0FFF7D0FF044678B9EE
S3510000366C0598FF21C5F8640205F51A704FF480721BF0B2F90698C5F868030798C5F86C032046BDE8384070472DE9F84FDFF8827205460020009038680C4650B9DFF876023860D5F85C1295F86022D5F8D6
S351000036B8583200F0AFF94FF0000ADFF86282DFF862B2DFF862621BE13868009900F0B8F98146F06C8047F0B1386890F9220058B1012018F09DFF0146386890F9220017F003FF386880F822A0386890F9FC
S35100003704230050B1012018F08DFF01463868233017F0E2FE386880F823A0B9F1090F00F2E680DFE819F0CC000A007A002600E400E400E400E400E400D8000098D5F85C1295F86022FFF7DEFD60B9F06CCA
S351000037508047002800F0D880012018F065FF0146404617F0BBFECFE0706C804700992846FFF764FEC8E03A68D069D1681269FFF705FE04280CD1F06C8047002800F0BC80012018F049FF0146404617F030
S3510000379C9FFEB3E070B9706C8047F06C8047002800F0AC80012018F039FF0146584617F08FFEA3E002280FD1706C8047F06C8047002800F09B80012018F028FF0146DFF8560117F07DFE91E00328F06CD9
S351000037E80CD18047002800F08B80012018F018FF0146DFF83A0117F06DFE81E08047002800F07E80012018F00BFF0146DFF8220117F060FE74E03A68D069D1681269FFF7B1FD04280BD1F06C80470028CC
S3510000383468D0012018F0F6FE0146404617F04CFE60E070B9706C8047F06C8047002859D0012018F0E7FE0146DFF8DE0017F03CFE50E0012806D1706C804700992846FFF7E3FD47E0062806D1706C804785
S3510000388000992846FFF71CFE3EE0022806D1706C804700992846FFF70BFC35E0032804D13868012100F0DCF82EE0F06C804758B3012018F0B9FE0146DFF8860017F00EFE22E0F06C8047F8B1012018F0B4
S351000038CCADFE0146DFF8720017F002FE16E0F06C804798B1012018F0A1FE0146DFF85E0017F0F6FD0AE0F06C804738B1012018F095FE0146DFF84A0017F0EAFD204600A901F09CF900283FF4DDAEBDE8A0
S35100003918F84F7047C046783AFF1FC03AFF1FE508FF1FF308FF1F1737FF1F0C09FF1F3809FF1F4E09FF1F6309FF1F7A09FF1F8809FF1F9609FF1FB109FF1F00002DE9F843DFF89E800025D8F800000E46DC
S351000039640095002843D0DFF892400DF10009DFF88E7036E0F86C804730B1012018F052FE0146204617F0A8FDD8F80000009900F05FF8F86C804720B3D8F8000090F9220068B1012018F03EFE0146D8F80A
S351000039B0000090F9220017F0A3FDD8F8000080F82250D8F8000090F9230060B1012018F02BFE0146D8F80000233017F07FFDD8F8000080F823503046494601F02DF90028C2D0BDE8F8437047C046783A0D
S351000039FCFF1FC609FF1F1737FF1F000008B518B182680AB108469047BDE8084070470000F8B507460E4615461C4658B100F0CCF90020B861F86138843846FE603D617C6100F018F8BDE8F840704700000C
S35100003A4808B542689047BDE80840704708B582689047BDE80840704708B510B10C30FFF7CFFFBDE80840704710B5044600F0A6F900202060DFF810006060DFF81000A060BDE810407047C046193B000034
S35100003A94993B000018B587B0036904465A1C02611970C268022A02DD143000F05DFFE06802AA401E0132DFF854C0E060134610211CF8010B03F8010B491EF9D100A9DFF840E08C4609231EF8010B0CF8D5
S35100003AE0010B5B1EF9D194F916C00CF0F0000011135600A803710CF00F03D256427104F117001AF0F1FF07B0BDE818407047C0465C1102006C11020018B40022C26111F4000304D111F0080208BF01222F
S35100003B2C2ED053BB11F0080227D0DFF85A30022203F1010CC0F81CC001F0700C4FEA1C1C83F800C0C46904F1010CC0F81CC001F4704C4FEA1C3C84F800C0C46901F4FE0104F1010CC0F81CC0090C217068
S35100003B78C1694FF0000C81F800C0C36102E0042203B90522104618BC70477C3AFF1F000008B54FF0000C01292AD1C369DFF85820934206D00C300221FFF72AFFBDE808407047591CC1615978082904BFB8
S35100003BC44FF0010C82F802C0C269911CC161917831B10C300221FFF715FFBDE808407047BCF1000F04D100F00BF8BDE80840704700F01AF8BDE808407047C0467C3AFF1F10B5044600F0DCF80120206019
S35100003C10DFF810006060DFF81000A060BDE810407047C046B53C0000393D000010B5044600F0C8F801202060DFF810006060DFF81000A060BDE810407047C046053D0000393D000038B504460C30C9B275
S35100003C5CFFF71CFFA069E8B904F10C000221FFF7CDFEE369228C981E0178581E007840EA0120824204D0DFF82C004078082801D1032500E00925DFF81C00E0612046FFF7E9FE03E02046002500F056F866
S35100003CA82846BDE8384070477C3AFF1F38B5054611F4000208D10C300221FFF7A1FE28460824FFF7D1FE15E001F03F02931CDA1E3C2A08D90C300221FFF792FE28460724FFF7C2FE06E04FF6FF72836180
S35100003CF40284FFF7ADFF04462046BDE83840704738B5054611F4000208D10C300221FFF779FE28460824FFF7A9FE07E0042282614FF6FF720284FFF793FF04462046BDE83840704710B50446032906D16D
S35100003D400C300221FFF760FE2046FFF791FEBDE81040704710B5044600F034F802202060DFF810006060DFF81000A060BDE810407047C0467D3D0000A93D000038B5054611F4000208D10C300221FFF7CD
S35100003D8C3DFE28460624FFF76DFE02E0FFF75CFF04462046BDE838407047000010B50446032906D10C300221FFF728FE2046FFF759FEBDE810407047DFF80C104160DFF80C1081607047C046DD3D0000CF
S35100003DD8E53D00000020C043704700007047000078B581B0064600200D46009000AC04E0D6F89001009900F007FF2846214600F01FFF0028F4D001B0BDE87840704700002DE9F84781B0DFF8CA90074623
S35100003E2400200090D9F800000E4668B9DFF8BA00C9F80000C9F80400D7F85C1297F86022D7F8583200F0B0F800240DF1000ADFF89E803DE0009AD9F8000002F0070102F47F42C2F3072200F0C7F80546CE
S35100003E70D8F84C00804720B3D9F8000090F93C0068B1012018F0D0FB0146D9F8000090F93C0017F035FBD9F8000080F83C40D9F8000090F93D0060B1012018F0BDFB0146D9F800003D3017F011FBD9F8DC
S35100003EBC000080F83D40022D06D1D9F80010D7F8C800896B00F09EFE3046514600F0B6FE0028BBD001B0BDE8F8477047C046643BFF1F6C3BFF1F1737FF1F00002DE9F843DFF89E800025D8F800000E468E
S35100003F080095002843D0DFF892400DF10009DFF88E7036E0F86C804730B1012018F080FB0146204617F0D6FAD8F80000009900F095F8F86C804720B3D8F8000090F93C0068B1012018F06CFB0146D8F88F
S35100003F54000090F93C0017F0D1FAD8F8000080F83C50D8F8000090F93D0060B1012018F059FB0146D8F800003D3017F0ADFAD8F8000080F83D503046494600F05BFE0028C2D0BDE8F8437047C046643B41
S35100003FA0FF1FCF09FF1F1737FF1F00002DE9F0410446884617461D4600F10C06D0B100F041FB7760B560C6F800800027072504F10C00F9B200F04CF8F1197F1C08736D1EF5DC0020F06130627062B062C0
S35100003FECF062204600F04AF8BDE8F0417047000008B5072910D0C368DB7D03F0E00CBCF1800F38BF4FF0800C43181B7E0CFB03F3B2EB232FD8BF0721012902BF4FF0000CDFF8303083F800C00ED0002991
S3510000403803BF4FF0010CDFF8203083F800C04FF0FF3C1CBFDFF8103083F800C043689847BDE808407047C046D809FF1F08B582689047BDE80840704731B1491E06BF006890F82B0000207047006890F8DA
S351000040842C00704710B5044600F0DAFA00202060DFF810006060DFF81000A060BDE810407047C0467D410000D5410000F8B507460E46002507243846E9B2FFF7D7FF07EB050C9CF80C3003FB06F2D11152
S351000040D002EB116109120129B8BF01215B1A8342B8BF03466D1C8CF80C30641EE5DCBDE8F8407047017BC174417B0175817B4175C17B8175017CC175417C0176817C4176704700004FF0010C09B14FF0E9
S3510000411C000CC36A4CEA4303C362836A5B1E8362036A5B1C0362C3695B1CC361CBB2012B0BD800F1130313F801C0624508D9624402EBD27252105A5402E0426A521C426221B1491E04D0891F04D005E040
S35100004168312104E0302102E02D2100E02A2180F83010704770B504460E461546012912D10C30FFF7B3FF0021082060632163A16304F10C0031462A46FFF7B8FF2046012500F01EF80DE00C30FFF7B0FF1C
S351000041B4E06A802806DB8038E06204F10C001221FFF774FF00252846BDE870407047000008B5012903D10021816200F089F9BDE80840704710B5044600F02AFA01202060DFF808006060BDE810407047CC
S35100004200A143000018B44FF0000C072100EB0C04227BC2EBC2039A1003EB5272E37CD2109342CCBF237322730CF1010C491EEDDC18BC704718B4C16A4FF0010C01F07001C1F307144168002200290CDD01
S3510000424C03681B19D318DB7B13F0800308BF4FF0000C02D06932491EF2D1604618BC704718B583B00446FFF7DFFF98B100A9DFF838C00B460A221CF8010B03F8010B521EF9D104F1310080221AF07EFCD7
S3510000429803B0BDE8184070472046FFF7AFFF0020206203B0BDE818407047C0467511020030B585B000A90331DFF860E000AB05468C460F241EF8012B0CF8012B641EF9D1DFF84C2000AC92F800C083F851
S351000042E400C092F801C083F801C092789A70C26A313002F07002C2F3071231321A7080221AF032FC05F13100214680221AF040FC2846FFF7A9FF05B0BDE830407047C0467F1102008E11020030B585B051
S3510000433000A90331DFF860E000AB05468C460E241EF8012B0CF8012B641EF9D1DFF84C2000AC92F800C083F800C092F801C083F801C092789A70C26A313002F07002C2F3071231321A7080221AF0F8FB35
S3510000437C05F13100214680221AF006FC2846FFF76FFF05B0BDE830407047C046911102009F11020038B504460C30FFF7B5FE216B022904DD20460325FFF768FE2AE0606B0028C8BF012525DC002904DCB2
S351000043C8A06BC0B200F0A4FA40B1002020630F2060632046012500F061F815E0A16B11F400000BD111F0080008D104F10C00FFF75FFF20460225FFF743FE05E00F2060632046012500F004F82846BDE8FE
S351000044143840704710B5044600F012F902202060DFF808006060BDE8104070473544000038B504460C30FFF76BFE606B0028C8BF012528DC206B002804DD20460525FFF719FE20E0A16B01F4FE40C0F31E
S351000044600720C9B200F06CFAA36B47F6FF7103EA010203F4FF01C90B41EA0221A16320B120460525FFF700FE07E004F10C00FFF74DFF20460225FFF7F7FD2846BDE838407047000010B5044600F0CCF84F
S351000044AC03202060DFF808006060BDE810407047C144000038B505460C30FFF725FE286B022804DD28460324FFF7D8FD08E0686B0028C8BF012403DC28460424FFF7CEFD2046BDE83840704710B5044632
S351000044F800F0A4F804202060DFF810006060DFF81000A060BDE810407047C046314500008945000008B518B182680AB108469047BDE808407047000070B506460D461446012912D10C30FFF7D9FD002176
S35100004544092070633163B16306F10C0029462246FFF7DEFD3046012400F01CF80DE00C30FFF7D6FDB06A6428B8BF062405DB06F10C000321FFF7D0FF08242046BDE870407047000008B5022901D1FFF7E4
S351000045907BFDBDE80840704710B5044600F052F805202060DFF810006060DFF81000A060BDE810407047C046C14500003546000030B583B004460C30FFF7A4FD606B0028C8BF012525DC206BF8B9A06BF1
S351000045DCC0B240F40000A06304F10C00FFF70CFE0020A06220460225FFF77EFF00A9DFF832C00B460A221CF8010B03F8010B521EF9D104F13D0080221AF0AAFA03E020460725FFF769FF284603B0BDE856
S3510000462830407047C046A2110200000008B5022901D1FFF725FDBDE808407047DFF80C104160DFF80C1081607047C0465D460000654600000020C0437047000070470000F8B50646FEF7C6F9DFF8C6108A
S3510000467405460860002858DD802856D206F51A7232F8104000AF7C70FF2122F810107878FF280ED10021D6F86402C4F20401002216F0A6FE002840D0DFF88E0016F076FE3BE0DFF88A00C06C8047B8B15D
S351000046C0012017F0B1FF0146DFF87A0016F006FF7878FEF72FFADFF87200294616F060FE012017F0A1FF0146DFF8620016F0F6FE04F44050011300A801700A21D6F86402C4F2040100AA16F075FE18B106
S3510000470CDFF8420016F046FE00A9D6F864020131012216F035FA012803D0DFF82E0016F039FE0DF0CBFBBDE8F8407047C0462C3CFF1FD909FF1F1737FF1FFD09FF1F020AFF1F090AFF1F100AFF1F460AFD
S35100004758FF1F00002DE9F84F86B0824600200091059094E0FEF746F9059A834612F0004100F0778001280FDDDFF82801C06C8047002800F08480012017F04AFF0146DFF8180116F09FFE7AE012F080408B
S351000047A400F0778002F47020000C029002F44050000B019002F47C60C0F38715009805A902F03F0900F03EFA002862D10598082487B24FF0020810F000405AD007F47F400612380287B209F03F0040F010
S351000047F0800105F03F0040F080020198000300F4405990B2049088B203900298401CC5B228E017F4004014BF0398049820F4405040EA090081B2780087B2761E641ED84506DDB8F1800F3CBF0AEB480039
S3510000483CA0F86812A844C8F30708002E01DD002CE1DC009805A900F0F9F9F0B9059911F0004001D08FB21024002EEEDC15E002F4FE01C1F30741D2B239B1814205DB80293CBF0AEB4100A0F86822DFF8B5
S351000048882C000068814202D15046FFF7E9FE009805A900F0D5F900283FF464AF06B0BDE8F84F70471737FF1F660AFF1F2C3CFF1F38B5002100AC21800546D0F8640200A9022216F033FD02281CBF0720F3
S351000048D4208000A9D5F8C800098800F097F9BDE838407047DFF804301847C0466946000008B58C2200F044F8C0B2BDE80840704708B54AF2010200F03BF880B2BDE808407047000008B5014601F0F80021
S35100004920482804BF01F0070080F0010003D00020052200F061F8C0B2BDE808407047000010B502460C4611464FF6FF70132200F019F804F0F001132200F014F804F00F01484000F00F00BDE81040704743
S3510000496C10B50446008848F6110200F005F82080BDE8104070470000484010F0010118BF82EA500000D1400810F0010118BF82EA500000D1400810F0010118BF82EA500000D1400810F0010118BF82EA01
S351000049B8500000D1400810F0010118BF82EA500000D1400810F0010118BF82EA500000D1400810F0010118BF82EA500000D1400810F0010118BF82EA500000D14008704718B44840002401E05200641CAA
S35100004A0412F00041FAD0211C002C08DD10F0004318BF82EA400000D14000491EF6D1E04018BC7047F0B41C2519B912B10C20F0BC7047DFF82EC0002667460423874208D13C6834B1142070436044416036
S35100004A508260002503E01437761C5B1EF0DC2846F0BC7047C046303CFF1F000030B4DFF832204FF01C0C002415460421854208D12B6833B114204FF0000C604342F800C003E01435641C491EF0DC6046D7
S35100004A9C30BC7047C046303CFF1F000018B4DFF832404FF0FF334FF0000C0421844208D1226832B114200CFB00F1DFF81A00435804E014340CF1010C491EEFDC184618BC7047303CFF1F343CFF1F000072
S35100004AE82DE9F801002718B1B0F1FF3F00D01AB90020BDE8F8017047DFF836C00024E0460425D8F8006026B914256C430CEB040704E0641C08F114086D1EF2DC2FB101243C607860B960FA603B61384675
S35100004B34BDE8F8017047303CFF1F000030B4DFF854504FF01C0C0024042285421BD12B68CBB16B68B3F1FF3F15D049B9142004FB00F1DFF83400405888B14FF0000C0EE0142004FB00F2DFF820008058B5
S35100004B80884208BF4FF0000C03E01435641C521EDDDC604630BC7047303CFF1F3C3CFF1F70B5DFF840404FF0FF360425206898B16068B0F1FF3F0FD070B1401E60600BD1A06800B160602069E168884724
S35100004BCCA16801B96060606800B9666014346D1EE6DCBDE870407047303CFF1F0022C0F8C010DFF81030C0F8B820C0F8BC201E210122184785E80100C0F8B810C0F8BC20002070470FB410B5044628B9F0
S35100004C184FF48260BDE8104004B0704703A9002219F088FC38B9D4F8B81021B10846D4F8BC1019F0E7F8BDE8104004B07047000038B5054610B94FF482640EE0002200920022134619F022FD0446E86ADA
S35100004C6428B9D5F8B800D5F8BC1019F0AFF92046BDE838407047000038B50546002025B94FF0FF30BDE838407047C0F11E041E2805D215F8011BFFF733FE641EF9D1BDE838407047F8B507460C2918BF36
S35100004CB0012020D1DFF844500026032407EB860005EB860100F056F818B10220BDE8F8407047761CB6B2641EF0DC07F0ADFADFF820200C2117F8010B02F8010B491EF9D107F0A4FA0020BDE8F840704777
S35100004CFCAC110200860AFF1F2DE9F04182B0002700AE05460C469046022A38BF002026D307F08CFAA8F1010102E07F1CBFB2241D8F4202DAA0888542F7DA2088B0806088F080A0883080E088708007F0F1
S35100004D4879FAB1883088F488431A6A1A718803EBD370091B514301EB600090FBF3F0201880B202B0BDE8F041704700000A880388934203D3B0F802C0944501D2012070474888834201D8844501D902202A
S35100004D94704700207047000078B581B0054600AE401E318080B200247280012818D8DFF83E1000A801EB8501FFF7DAFF002818BF02240ED107F036FADFF82620308802EB850122F825007088488007F001
S35100004DE02DFA00E00124204601B0BDE878407047C046AC110200860AFF1F000078B589B000AC2046002503F039FAC8B9DFF83E2004AB0C2112F8010B03F8010B491EF9D1DFF82E0000AE0068B083204660
S35100004E2CFFF726FFC6F81E00204603F01BFA10B1022500E00125284609B0BDE878407047C046860AFF1F7835FF1F0000DFF80830014610202222184749800000DFF808300146102022221847E97E0000A5
S35100004E7838B505460C460DE0002017F0D1FB2946012216F053FA012808BF002008D0012017F0A4FE2046641E0028EDD14FF0FF30BDE838407047000070B506460D46144612E0002017F0B4FB31462A460A
S35100004EC416F036FA002806DD2D1A36181DB90020BDE870407047012017F082FE2046641E0028E8D14FF0FF30BDE870407047000010B50446012017F095FB0146204616F0FDFABDE81040704708B5C82017
S35100004F1017F068FE002017F087FB16F069FBBDE8084070472DE9F84381460020174600AD08608846284639461E46FFF79DFF20B10020C043BDE8F843704700AC207818280ADC15DA04282ADC012828DB8E
S35100004F5C07D0022807D0042808D022E01A281CD01FE0802422E04FF480641FE00020BDE8F843704728463946FFF778FF40B92078182802BF4FF0FF30C8F8000000204AD00020C043BDE8F8437047012046
S35100004FA8BDE8F84370470020C043BDE8F8437047251D89F8000009F1010029463A46FFF773FF20B10020C043BDE8F843704709F10300214600F022FBDFF85410E21C888119F802200A7219F80550D2B27A
S35100004FF4120293B2EAB24D729A184A8191B280B2814205D026B10020C043BDE8F843704799F8020080F0FF0099F80110C0B2814204BFC8F80040002001D00020C043BDE8F8437047803CFF1F2DE9F84F1E
S351000050408CB000240A9410F0010014BF01200020C0B2019000200690002003900290002004900020DFF82E74DFF82E9405900DF1220A0DF1240B002607ADDFF82204019B0BA94FF47A72FFF74DFF18B1DA
S3510000508C401E00F0BA81C4E10B9900200390481C02D0401E08D01EE00620FFF725FF0CB00020BDE8F84F7047DFF8EA83D8F8100030B9401CC8F810001520FFF715FFD4E10620FFF711FF012005904320B2
S351000050D8C8F81060FFF70AFFC9E1DFF8BA03049A4078D2B2904211D00499491EC9B2884206D10498401E04900620FFF7F7FEB6E1FFF700FF1520FFF7F1FEB0E1049800284CD1DFF88203C078002840D0E9
S351000051240022DFF87E33DFF87E8304E0C0B208F8010B5B1C521C1878014609B1802AF5DBDFF862035B1C86540022B84604E0C0B208F8010B5B1C521C18780146202902D0B2F5806FF3DBDFF84213BE54DD
S3510000517038460AAA15F018FD0A98B0F5002F0BD91820FFF7B7FE1820FFF7B4FE0CB06FF00100BDE8F84F70470620FFF7ABFE4320FFF7A8FE29E10620FFF7A4FE01200590069060E12980DFF8EE8217E1C4
S351000051BC07AB404607A908AA023300F02FFB042800F20181DFE810F0060011005800FF00000100011820FFF787FE1820FFF784FE0120059006902E80EEE0A988002008EB0103DFF8B212B5F802E00A88B2
S3510000520809EB020C04E013F9012B0CF8012B401C7045F8DB0A8880B210180880CDF800A0098848465A463B4600F042FA022814D1EA8809983946A41800F03AF9002800F0C5801820FFF752FE1820FFF754
S351000052544FFE0CB06FF00100BDE8F84F7047042808BF2E8000F0B4801820FFF741FE1820FFF73EFE0CB06FF00200BDE8F84F7047CDF800A0A888698840445A463B4600F011FA022814D1EA8809983946D9
S351000052A0A41800F009F9002800F094801820FFF721FE1820FFF71EFE0CB06FF00300BDE8F84F70476FF0010188426FD1A888CC4608EB00036888002862DDC10800F02F8093F900208CF8002093F901202B
S351000052EC8CF801209B1C93F900200CF1020C8CF8002093F901208CF801209B1C93F900200CF1020C8CF8002093F901208CF801209B1C93F900200CF1020C8CF8002093F901208CF801209B1C0CF1020CDD
S35100005338491E7FF4D1AF10F0040F00F0168093F900208CF8002093F901208CF801209B1C93F900200CF1020C8CF8002093F901208CF801209B1C0CF1020C10F0020F00F00B8093F900208CF8002093F900
S3510000538401208CF801209B1C0CF1020C10F0010F00F0048093F900208CF800206888DFF80E1108802E8013E0B0F1FF3F0BD11820FFF79EFD1820FFF79BFD0CB06FF00400BDE8F84F7047042808BF2E80BF
S351000053D000E02E80A88869880A1829889142B8BF2E8003DB90B2081A28809044288800287FF4E4AE0620FFF77DFD0498401C04900120029037E01820FFF774FD1820FFF771FD0CB06FF00500BDE8F84F43
S3510000541C7047DFF88280D8F81000012804DD012005900120069020E002980028C2BF0398401C0390039805280BDD1820FFF754FD1820FFF751FD0CB06FF00600BDE8F84F70470298002805DDFFF752FD32
S351000054681520FFF743FD02E04320FFF73FFD059800283FF4FEAD069800283FF4ECAD00F0B1F820460CB0BDE8F84F7047C046943CFF1F9640FF1F9641FF1F803CFF1F9941FF1F9B45FF1F920AFF1F944042
S351000054B4FF1F00002DE9F843DFF8227115463A8888460021DFF81A41814672B37B68991888420CD003F500200821224600F094FC014600280CBFC7F8049000251DE0A318FF21C2F10800082A0CD2002DBE
S3510000550008BF197005D018F8012B1A7009F101096D1E5B1C401EF2D17868082100F50020224600F073FC0146786808307860261C082D17D905F00700291A398009F5002089B2424600F062FC014600282E
S3510000554C1CBF0020388008D1388881442D1AC7F8049080443D8000E03D803A88B2B3002504E018F8010B04F8010B6D1C9542F8D37419FF23C5F10802082D27D2D00800F00F8023706370A41C2370637045
S35100005598A41C23706370A41C23706370A41C401E7FF4F1AF12F0040F00F0068023706370A41C23706370A41C12F0020F00F0038023706370A41C12F0010F00F0018023700846BDE8F8437047C046803C04
S351000055E4FF1F1B46FF1F000038B5DFF82C4000252088002160B16068DFF8202000F50020082100F001FC014660680830606025800846BDE838407047803CFF1F1B46FF1F18B44FF0000C41F221020FE01C
S3510000563010F8013B8CEA032C08241CF4004314BF82EA4C0C4FEA4C0C641E64B2002CF4DC491EEDD5CCF30F0018BC704790F90010392901DD373900E0303989B20A1C92B21101401C8AB290F900103929A6
S3510000567C01DD373900E0303989B2521892B2D0B270470000002309E090F90020392A01DD373A00E0303A02EB0313401C0A46491E89B2002AF0D11846704700002DE9F84F1E464FF0FF33DDF828B00746F5
S351000056C88846144600930A2938BF6FF00100C0F0A38000211160ABF8001090F90010532940F0998090F901103039092926D8DFE801F005090D11251525191D210121042500911CE002210425009118E05B
S3510000571402210625009114E002210825009110E00321042500910CE004210825009108E004210625009104E004210425009100E00025801CFFF788FF4000C0F30F0AA8F104005045B8BF6FF001005FDBF9
S35100005760281F04D0801E09D0801E0FD013E0381D0421FFF78DFF80B220600CE0381D0621FFF786FF20F07F40206004E0381D0821FFF77EFF2060281D4FF0FF34041964084FF000084FF00209002C0CDDDA
S351000057AC07EB0900FFF754FF804409F10209C8F30F08C9F30F09641EF2D1281D85B20AF10304641B64084FF00009002C10DD7819FFF73EFFC0B2AD1C804409F1010906F8010BC8F30F08C9F30F09ADB213
S351000057F8641EEED10AF102003818FFF72BFFC8F3070181F0FF0189B2814218BF4FF0FF3002D1ABF800900098BDE8F84F7047000078B4098800260024168025461EE010F905C0BCF10D0F02D0BCF10A0FC4
S3510000584408D1022D3EBFB2F800C00CF1010CA2F800C00BE0761CB6B2BCF1530F06D1128812B90DB1012405E0022403E06D1CADB28D42DED3022C13D16D1CADB28D420FD24257302A08BF04244A1B8D4216
S3510000589008D24157532905D0761C6D1CB6B2ADB2521EF6D11E80204678BC70470120C4F202000078C0F3C000002814BF0120002000B2704710B50446082000F00DF840B90A22C4F20202511E137809780C
S351000058DC911E09782370BDE81040704708B582B0462200A90A7007224A70C0228A700022CA700871FF2048718871C871072000A9012200F005F802B0BDE80840704700002DE9F04F83B00C4600218346F9
S351000059280092C4F2020100E0C046087800F080000028F9D00021C4F20201087810F070001CBF70200870DFF86C01006858B900F0E3FA411CDFF85C010129016098BF4FF4006040F2A28040F20C09C4F27D
S351000059740209002001900020A9F1FF3AA9F10402A9F10303A9F1020CA9F1010EA9F10805A9F10706A9F10607A9F1050835E00B2831D8DFE800F0060A0D1013171B1E2125292D215C88F8001025E0215C42
S351000059C0397022E0215C31701FE0215C29701CE0215C8EF8001018E0215C8CF8001014E0215C197011E0215C11700EE0215C89F803100AE0215C89F8021006E0215C8AF8001002E0215C89F80010401C7C
S35100005A0CC0B25845C7D9009890B1207809280FD10024C4F20204207840F08000207002E0012017F0D9F8207810F08000F8D01DE0009848B14DF20D01C4F20601087800F0F700087006F0F2FBDFF864000F
S35100005A5800688047009858B106F0ECFB4DF20D01C4F20601087800F0F70040F0080008700020C4F20200017802A80170007810F020001CBF042001900ED102A8007810F010001CBF0820019006D102A874
S35100005AA4007810F001001CBF10200190019803B0BDE8F04F7047C0462446FF1F70B51321C4F202010878FF2804D0DFF87800097815F064FC1221C4F202010878FF2804D0DFF86400097815F059FC1121B5
S35100005AF0C4F202010878FF2804D0DFF85400097815F04EFC1021C4F202010878FF2804D0DFF84000097815F043FCDFF83C0015F03FFC4FF400257C24284600F037F9064630B9284600F04CF905F5805564
S35100005B3C641EF3DC3046BDE870407047950AFF1FA10AFF1FAD0AFF1FB90AFF1FC50AFF1F38B5DFF8D840DFF8D8502046FFF7ACFE00285FD1297903290ED1FFF7A3FF002858D14FF47C2000F00BF9002851
S35100005B8852D12046FFF79AFE00284DD12B79B3B90120FFF7A5FE002846D10A22C4F2020211780B462971012B09D011780B462971022B04D011780B462971032BF0D1012B10D10220FFF78CFE70BB0A2228
S35100005BD4C4F2020211780B462971022B04D011780B462971032BF5D1991EC9B201291DD8032B1BD040F20C40C0F2080001686FF00100814218BF4FF400700FD1FFF756FF4FF47C2000F0C0F840B920461F
S35100005C20FFF750FE20B92979032918BF4FF48060BDE838407047C0462846FF1F2446FF1F38B5002000AC207000A8FFF73BFE054638BB2078032822D1DFF850404FF4002000F020F90146E06982B29142E1
S35100005C6C05D0DFF8400015F095FB202513E04CF632106168C5F2AE1081420CD04CF63212DFF82400C5F2AE1215F084FB4FF4804501E04FF480552846BDE838407047C04620040800D60AFF1FF60AFF1FBF
S35100005CB818B581B0002000AC207000A8FFF7FEFD68B9217803290AD10420FFF709FE30B90A22C4F20202117821700429FBD101B0BDE818407047000038B54FF4FE2000F051F8044650BB4FF4FC2000F053
S35100005D044BF8044620BB4FF4FA2000F045F80446F0B94FF4FE204FF480514FF47F2200F073F80446A0B94FF4FC204FF480514FF47E2200F069F8044650B94FF4FA204FF480514FF47D2200F05FF8044633
S35100005D5000B90024ECB94FF47F204FF4FE214FF4805218F047FE05464FF47E204FF4FC214FF4805218F03EFE05434FF47D204FF4FA214FF4805218F035FE054318BF4FF400542046BDE83840704700002E
S35100005D9C08B50022B0F5002F28BF0122092300A90B7000F47F031B0C4B7000F47F431B0A8B70C870032000A9FFF7AAFDBDE808407047000008B501464FF480520CE011F8010BFF2808D0DFF8220015F01E
S35100005DE8DBFA4FF48070BDE8084070471046521E0028EED10020BDE808407047C046170BFF1F00002DE9F84783B0174600AD814688460024002210F0070018BF4FF4807236D111F0070018BF012231D17B
S35100005E3407260DF1000A2AE009F47F002E70000C687009F47F40000AA87085F80390F878B9F5002F2871B87868717878A8713878E871F8792872B87968727879A8723879E87228BF01240B20514622468E
S35100005E80FFF74CFD024638B909F10809A8F108080837B8F1000FD1D1104603B0BDE8F847704700002DE9F84181B000210091DFF8621004460E18B26906F12007811800F5F820A1EB0708824219D2DFF87C
S35100005ECC4A50286D12F05EF8214600AC286D4FF48062234612F07CF8286D31461C22234612F076F8286D39464246234612F070F803E0DFF81A0015F04DFA009880B201B0BDE8F84170472004000018B99A
S35100005F18FF1F2D0BFF1F000070B5DFF83440A06878B9DFF8300020F00105DFF82C00461B304618F0CFF9014628463246A16014F071FBDFF80C008068BDE870407047C0462446FF1F655F0000855F0000A8
S35100005F640021C4F20201087840F08000087000E0C046087800F080000028F9D070470000704700000160002219210171C1801921427101818272C272704700002DE9F04788B082460278DFF8F072DFF89F
S35100005FB0F002DFF8F0123A70086000285FD0D5B200240023002D5AD9E80800F02B800A6822F81430641C0A68E4B222F81430641C0A68E4B222F81430641C0A68E4B222F81430641C0A68E4B222F814304A
S35100005FFC641C0A68E4B222F81430641C0A68E4B222F81430641C0A68E4B222F81430641CE4B2401E7FF4D5AF15F0040F00F014800A6822F81430641C0A68E4B222F81430641C0A68E4B222F81430641C7E
S351000060480A68E4B222F81430641CE4B215F0020F00F00A800A6822F81430641C0A68E4B222F81430641CE4B215F0010F00F003800A6822F81430DFF82802B86028B9FAF7F9F908B0BDE8F0477047DFF8D7
S351000060941812DFF818020029016000F0F980002002900120002601900DF11C0800254FF00009344627E0B868DAF81410484451F8251000F5C87000F00FFDDAF80800405D0090DAF80430B868DAF80C10AE
S351000060E0DAF810205B5D48448919121901F0D6F8B868143600EB0901DFF8B40109F5E27900680C3440F825106D1C39788D42D4DBDFF89C01006802F093F800200026002406904FF00109454623E000203B
S3510000612C0390B96806980818832101F0E7FA60B1B868001901F0C4FA2870B868001901F0BFFA20B90120039001E085F80090039808B1002001900698761C00F5E27004F5E27406906D1C38788642D8DB35
S351000061780024204600260025059004906BE0B868001990F8601091B390F8611011B190F8621061B398F8001079B101F093FA60B9019850B9B868F1B2001902F037F8F0B1B86801190598487419E0B86801
S351000061C4001990F8631009B10121029101F07CFA0028B86805D00019418851B101F07CFA07E0011991F8630018B1D1F8C80009F043FCB8684119049881F86300B868401990F86010B1B101F0B1FAB86837
S35100006210401901F05BFA38B1B8684FF4004100190A46002301F042F9B868002100191022012301F03BF904E010211022012301F035F9B868001990F8621009B101F09EFA761C05F5E27504F5E27408F158
S3510000625C01083878864290DB029868B1DFF8480015F098F8DFF83C003978006801F0B2FFDFF8380015F08EF8B868397800F018F8B868397801F0FEFA08B0BDE8F04770473046FF1F6846FF1F6446FF1F37
S351000062A87846FF1F7046FF1F6C46FF1F470BFF1F6F0BFF1F2DE9F84F82B08346DFF852010191002800F0A08001F0D4FF002840F07A80DFF83E01FEF7CDFCDFF83611D1F81E1081426FD1DFF82A01818BC0
S351000062F440F26C7081420AD940F63400814206D2DFF816010160DFF8160115F047F8DFF806010C211030FEF7C5FC014619B1DFF8020115F03BF8019801264FF0000900286CD94FF4E27009FB00F00BEB06
S351000063400004DFF8D600D4F8C81000F071F800B34FF4E27009FB00F0DFF8BE7000240BEB00080225D8F8C80006FA04F108420BD000F0C0F9824600F0C5F9009039883B894046524600F008FFBF1C641C7D
S3510000638C6D1EE9DC11E000F0B3F9054600F0ACF9074600F0B5F9804600F0AEF90090204629463A46434600F0F1FE019809F10109401EC9F307090190B7D102B0BDE8F84F7047DFF85A0014F0E5FF019886
S351000063D80024002818D900F08DF9054600F086F9064600F08FF9074600F088F900900BEB0400294632463B4600F0CAFE019804F5E274401E0190E6D102B0BDE8F84F7047C0464146FF1F7835FF1F7B0BFB
S35100006424FF1FA30BFF1FC70BFF1F000018B4002228B341F288334FF6FF7C11F001040CD00488644509D084889C4206D80489644503D084899C4298BF0122801C11F002040DD0048864450AD084889C4236
S3510000647007D80489644504D084899C4298BF42F0020201208A4218BF0020C0B218BC70472DE9F047DFF86850DFF868600027002100223046C943134617F00AFC08B1002FF5D00028F3D117F039FD80462F
S351000064BC10F0010016D000244FF00009DFF83CA008E0DAF80800484401F04AF9641C09F5E279E4B29AF800008442F2D32846802117F08EFC18F00060D3D0012007B10020C7B2CEE73B8AFF1F004AFF1F5D
S351000065083046FF1F30B4DFF85E200024956845B339B312782346002A17D905EB030CDCF8C8C010EA0C0C0CD0E818012400F1B80C0B460A221CF8010B03F8010B521EF9D103E003F5E273521EE7D154B9FC
S351000065540020087048708870C870087148718871C8710872487230BC70473046FF1F000018B4DFF83C104FF0000C8C68A4B1DFF83420126882B10978624600290CD9A318D3F8C83003421CBFA018B0F816
S351000065A0E2C003D102F5E272491EF2D1604618BC7047C0463046FF1F6446FF1F30B4DFF830C0DCF808208AB19CF800200023002A0CD9DCF80840E518D5F8C840044218BFA5F8E81003F5E273521EF2D143
S351000065EC30BC70473046FF1F2DE9F84FDFF8A4508246A868002849D042F2010001EA000201F4005080B24FF00009002401F0010601F0080701F004080090C2F30F0B32E0A8680119D1F8C8001AEA0000BB
S3510000663825D0002E084642F2010204D05946002300F030FF09E00099002300F02BFFDFF84C004FF4806117F0D5FB37B1A868082100190A46002300F01DFFB8F1000F06D0A868042100190A46002300F0DE
S3510000668413FF09F1010904F5E274C9F3070928788145C9D3BDE8F84F7047C0463046FF1F004AFF1F2DE9F041DFF83E800646D8F808000024A0B1002500270DE0D8F80800C019D0F8C810314202D000F0B8
S351000066D0C3FF04436D1C07F5E277EDB298F800008542EDD32046BDE8F0417047C0463046FF1F000040F21320704700004FF496707047000040F26D30704700004FF42F70704700002DE9F04F87B0002067
S3510000671C009005A816F09AF90022DFF800010121134617F0C7FA0028F6D117F0F9FB10F00100F1D0DFF8E80003AC006840F02001DFF8DC000160204616F080F905A8214601AA16F08BF90CF0E9FB43F6EA
S351000067689821884217D90098A8B9012000F088FC01204FF288020090C4F20F02022010604FF400601060111F0860042010604FF480601060086001994FF47A70029A48431018B0F5FA6F22BF0121DFF8D1
S351000067B47C0001744FF0000A00244FF00109DFF87080DFF868704FF47A7B45F2FC35DFF85C601DE00CF0AEFBA84213D90198029900FB0BF0081864280CD3B8680121001988F8009000F00AFE012000F0A2
S351000068005FFC012000F03AFC0AF1010A04F5E274CAF3070A30788245DED3DFF81C00402117F0F4FA7EE7C046244AFF1F138AFF1F3046FF1F0889FF1F3B8AFF1F4FF0000C00230C2200F80C300CF1010C66
S3510000684CCCF3070C00F80C300CF1010CCCF3070C00F80C300CF1010CCCF3070C00F80C300CF1010CCCF3070C00F80C300CF1010CCCF3070C00F80C300CF1010CCCF3070C00F80C300CF1010CCCF3070CC8
S3510000689800F80C300CF1010CCCF3070C521ECDDC002280F8602080F8612080F8622080F8632080F8682080F8692080F86A204266C16670472DE9F041074600260024B846472598F800103046FEF708F8A1
S351000068E418F8011B81F0FF0106462046C9B2FDF7FFFF04466D1EEEDC97F847108E4204BF97F84810884206D13846391D00F08CF808B1012000E00020C0B2BDE8F04170474FF0000C00230221C21892F8F0
S351000069304920FF2A18BF4FF0010C4AD15B1CC21892F84920FF2A18BF4FF0010C41D15B1CC21892F84920FF2A18BF4FF0010C38D15B1CC21892F84920FF2A18BF4FF0010C2FD15B1CC21892F84920FF2A0D
S3510000697C18BF4FF0010C26D15B1CC21892F84920FF2A18BF4FF0010C1DD15B1CC21892F84920FF2A18BF4FF0010C14D15B1CC21892F84920FF2A18BF4FF0010C0BD15B1CC21892F84920FF2A18BF4FF0CD
S351000069C8010C02D15B1C491EACDC6046704700002DE9F8430026804600273546122408EB050999F849103846FDF780FF99F8491081F0FF0107463046C9B2FDF777FF6D1C0646EDB2641EEADC98F85B102F
S35100006A148F4203BF98F85C10884201200020C0B2BDE8F8437047000002784FF0000C1F2A15D8092A13D34278352A10D8012A0ED343884FF6FE72934209D8026808685040B0F1FF3F08BF4FF0010CCCF31B
S35100006A60070C6046704700002DE9F041011D80460027FFF7DBFFB8B100244646472531783846FDF737FF16F8011B81F0FF0107462046C9B2FDF72EFF04466D1EEFDC88F8477088F8480001273846BDE8A8
S35100006AACF041704710B5DFF830400121204616F069FF204616F0AEFEDFF82040206818B9002011F00BFC2060DFF80C0016F0E4FEBDE810407047C0466C4AFF1F0F89FF1F91B9DFF878104161DFF87410B1
S35100006AF8C160DFF874100161DFF870100160DFF870104160DFF86C1081607047012912D1DFF864104161DFF86410C160DFF860100161DFF860100160DFF844104160DFF8581081607047022911D1DFF895
S35100006B4450104161DFF84C10C160DFF84C100161DFF848100160DFF81C104160DFF8401081607047616E0000996C00007D6D000035700000456F000031710000AD6E0000E56C0000C96D00005170000005
S35100006B9051710000F96E0000316D0000156E00006D70000075710000DFF856204FF0000C10F0050323D004291FD8DFE801F0030B1E131919916821EA000C6FEA40000CEA000C12E0916841EA000C6FEAA0
S35100006BDC40000CEA000C0AE0916841EA000C4CEA400C04E0916821EA000C4CEA400CC2F808C07047C046484AFF1F0000DFF8040080687047484AFF1FDFF8040040697047484AFF1F2DE9F047DFF86690F5
S35100006C28074648460E4600244FF47A7A16F0F4FDDFF85680D8F80000C8B1394611F018FCD8F8000011F0E2FBD8F8000011F04CFC5146AAF1010A0446CAF30F0A09B10028F2D0D8F80000314611F024FCDF
S35100006C740546484616F014FE14B10DB9012000E00020C0B2BDE8F04770476C4AFF1F0F89FF1F000018B581B0002000AC2080022000A9FFF7BBFFA0B1208818F07FFD01460020C4F2D95019F0E3F84FF2D5
S35100006CC00001C4F27F5119F089FC19F0A5F801B0BDE8184070470020C04301B0BDE818407047000018B581B0002000AC2080052000A9FFF795FFA0B1208818F059FD01460020C4F2D95019F0BDF84FF27C
S35100006D0C0001C4F27F5119F063FC19F07FF801B0BDE8184070470020C04301B0BDE818407047000018B581B0002000AC2080082000A9FFF76FFFA0B1208818F033FD01460020C4F2D95019F097F84FF2EA
S35100006D580001C4F27F5119F03DFC19F059F801B0BDE8184070470020C04301B0BDE818407047000018B581B0002000AC2080012000A9FFF749FFA8B1208818F00DFD014645F20000C4F2436019F070F80C
S35100006DA44FF20001C4F27F5119F016FC19F032F801B0BDE8184070470020C04301B0BDE81840704718B581B0002000AC2080042000A9FFF723FFA8B1208818F0E7FC014645F20000C4F2436019F04AF83D
S35100006DF04FF20001C4F27F5119F0F0FB19F00CF801B0BDE8184070470020C04301B0BDE81840704718B581B0002000AC2080072000A9FFF7FDFEA8B1208818F0C1FC014645F20000C4F2436019F024F8AE
S35100006E3C4FF20001C4F27F5119F0CAFB18F0E6FF01B0BDE8184070470020C04301B0BDE81840704718B581B0002000AC2080002000A9FFF7D7FEA8B1208818F09BFC01464AF68030C4F2EA7018F0FEFFAA
S35100006E884FF20001C4F27F5119F0A4FB18F0C0FF01B0BDE8184070470020C04301B0BDE81840704718B581B0002000AC2080032000A9FFF7B1FEA8B1208818F075FC01464AF68030C4F2EA7018F0D8FF19
S35100006ED44FF20001C4F27F5119F07EFB18F09AFF01B0BDE8184070470020C04301B0BDE81840704718B581B0002000AC2080062000A9FFF78BFEA8B1208818F04FFC01464AF68030C4F2EA7018F0B2FF88
S35100006F204FF20001C4F27F5119F058FB18F074FF01B0BDE8184070470020C04301B0BDE818407047DFF8AE100B6913F0010C11D100F00102002A0DDD43F001024FF284030A610422C4F20F031A604FF47D
S35100006F6C80625A601A6014E0BCF1000F11DD10F001020ED10A69042322F001020A614FF28802C4F20F0213604FF4806342F8043913600B6913F0040C11D100F00402002A0DDD43F0040008614FF2840135
S35100006FB80220C4F20F0108604FF40060486008607047BCF1000F11DD10F004000ED1086920F0040008614FF288000221C4F20F0001604FF4006140F8041901607047484AFF1F000000284FF480521DBF66
S351000070044FF28801C4F20F010A604FF2840104BFC4F20F010A60DFF8081048707047C046484AFF1FDFF8040040787047484AFF1FDFF81400C06900F001000128CCBF01200020C0B27047C046484AFF1FA0
S35100007050DFF81400C06900F004000128CCBF01200020C0B27047C046484AFF1F00207047DFF80400C0697047484AFF1FDFF80410087070476DB9FF1FDFF82410002808704FF4007103BF4FF24800C4F212
S3510000709C0F0001604FF244001CBFC4F20F0001607047C046B438FF1FDFF8040000787047B438FF1FDFF80410087070476CB9FF1FDFF80400007870476CB9FF1FDFF8040000687047684AFF1FDFF8040082
S351000070E800787047484AFF1FDFF8040000697047484AFF1F10B5DFF82C000421006800240FF062FF00B90424DFF81800022140680FF03CFD08B944F001042046BDE810407047C04618B9FF1F10B5DFF883
S3510000713418000121406801240FF02AFD00B10024E0B2BDE81040704718B9FF1F08B5DFF81C00032140680FF01BFD00280CBF01200020C0B2BDE808407047C04618B9FF1F08B5DFF81C00052100680FF0CB
